:1000000000180020C1000000512F00001D2F00002B
:100010001D2F00001D2F00001D2F00001D2F0000B0
:100020001D2F00001D2F00001D2F0000512F00006C
:10003000512F00001D2F0000512F00000D2F000038
:10004000512F0000512F0000512F0000512F0000B0
:10005000512F0000512F0000512F0000512F0000A0
:10006000DD2D0000512F0000512F0000512F000006
:1000700061370000ED3B000071410000512F00008E
:10008000512F0000512F0000512F0000512F000070
:10009000512F0000512F0000512F0000512F000060
:1000A000E1430000512F0000512F0000512F0000AC
:1000B000512F0000512F0000512F0000512F000040
:1000C00038B502F049FF454A454B1A60454A464B50
:1000D0001A60464A464B1A60464B0822197811426C
:1000E00002D019780A431A70434B2A221A7000234F
:1000F000424A43499A188A4204D24249C9580433B1
:100100001160F5E7404B41491A1F181D00238A4230
:1001100002D21360031CF6E73D493E4A5958101CB1
:1001200099500433C02BF7D100239A083A49920022
:10013000521803211940C9001568FF248C40A543BB
:100140002C1C80258D40291C214301331160202B5C
:10015000EBD1324B8A221860314B1A70314B24227A
:100160005A70A0221A709A799107FCD59A79D5060F
:10017000FCD498790C212B4A01400829F9D103219C
:100180001171402151719A799106FCD59A795506E1
:10019000FCD52549254A1160224A20211170997900
:1001A0000C220A400C2AFAD1214A224B1A60224A18
:1001B000224B1A60224B00221A60224B07221A603F
:1001C000214A224B1A6062B602F0B6FF09F046FCE3
:1001D00002F0C8FE05F022F8FEE7C046300004F049
:1001E00034800440823F0000388004400100000F4A
:1001F0003C80044002D0074000E0074060FDFF1F44
:10020000C4FEFF1F8CA90000CCFEFF1F780C00204D
:100210000000000000F9FF1F00E400E008ED00E02E
:100220000050064000400640000001104480044099
:10023000C0000505048004407FBB000014E000E01E
:1002400018E000E010E000E00000202020ED00E0D9
:10025000FFFFFFFFFFFFFFFFFFFFFFFFFFFFFFFFAE
:10026000FFFFFFFFFFFFFFFFFFFFFFFFFFFFFFFF9E
:10027000FFFFFFFFFFFFFFFFFFFFFFFFFFFFFFFF8E
:10028000FFFFFFFFFFFFFFFFFFFFFFFFFFFFFFFF7E
:10029000FFFFFFFFFFFFFFFFFFFFFFFFFFFFFFFF6E
:1002A000FFFFFFFFFFFFFFFFFFFFFFFFFFFFFFFF5E
:1002B000FFFFFFFFFFFFFFFFFFFFFFFFFFFFFFFF4E
:1002C000FFFFFFFFFFFFFFFFFFFFFFFFFFFFFFFF3E
:1002D000FFFFFFFFFFFFFFFFFFFFFFFFFFFFFFFF2E
:1002E000FFFFFFFFFFFFFFFFFFFFFFFFFFFFFFFF1E
:1002F000FFFFFFFFFFFFFFFFFFFFFFFFFFFFFFFF0E
:10030000FFFFFFFFFFFFFFFFFFFFFFFFFFFFFFFFFD
:10031000FFFFFFFFFFFFFFFFFFFFFFFFFFFFFFFFED
:10032000FFFFFFFFFFFFFFFFFFFFFFFFFFFFFFFFDD
:10033000FFFFFFFFFFFFFFFFFFFFFFFFFFFFFFFFCD
:10034000FFFFFFFFFFFFFFFFFFFFFFFFFFFFFFFFBD
:10035000FFFFFFFFFFFFFFFFFFFFFFFFFFFFFFFFAD
:10036000FFFFFFFFFFFFFFFFFFFFFFFFFFFFFFFF9D
:10037000FFFFFFFFFFFFFFFFFFFFFFFFFFFFFFFF8D
:10038000FFFFFFFFFFFFFFFFFFFFFFFFFFFFFFFF7D
:10039000FFFFFFFFFFFFFFFFFFFFFFFFFFFFFFFF6D
:1003A000FFFFFFFFFFFFFFFFFFFFFFFFFFFFFFFF5D
:1003B000FFFFFFFFFFFFFFFFFFFFFFFFFFFFFFFF4D
:1003C000FFFFFFFFFFFFFFFFFFFFFFFFFFFFFFFF3D
:1003D000FFFFFFFFFFFFFFFFFFFFFFFFFFFFFFFF2D
:1003E000FFFFFFFFFFFFFFFFFFFFFFFFFFFFFFFF1D
:1003F000FFFFFFFFFFFFFFFFFFFFFFFFFFFFFFFF0D
:10040000FFFFFFFFFFFFFFFFFFFFFFFFDEF9FFFF23
:1004100010B5064C2378002B07D1054B002B02D0DA
:10042000044800E000BF0123237010BDC8FEFF1F79
:10043000000000008CA9000008B5084B002B03D079
:100440000748084900E000BF07480368002B03D0B5
:10045000064B002B00D0984708BDC04600000000A6
:100460008CA90000CCFEFF1FC4FEFF1F000000008F
:100470000B8810B55840C0B202015040C0B2C20053
:10048000040254401A12231C53400211181C5040FD
:10049000088010BDF8B50C24902545436043534CAB
:1004A0001F1C2418524BE0785D1900230E1C23708A
:1004B000092800D984E006F0F3FE05050C251E2C62
:1004C000333D4C65FE297BD10222E270EB70A970AE
:1004D00067E0802906D9637801336370A37801331C
:1004E000A37058E0E9702371081C291CFFF7C0FFB6
:1004F0000423E37064E02971081C291CFFF7B8FF8E
:100500000323F6E76971081C291CFFF7B1FF0523D7
:10051000EFE7A971081C291CFFF7AAFF0623E8E7EB
:10052000E971081C291CFFF7A3FFEB78002B0ED004
:100530000723DEE72379081C5A1CEB181972227175
:10054000291CFFF795FF2279EB789A4238D10823CE
:10055000CFE7EB79274A291CD05CFFF789FF2B787E
:100560009E4209D0A3780133A37000232370FE2E8E
:1005700011D10222E27013E00923E3702379EB1812
:100580001E721DE02B881B1299420ED0A3780133F6
:10059000A370FE2901D00123ABE70223E3700023FF
:1005A000EB7001235B422B800AE001232370E37090
:1005B0002379101CEB1859729022291C09F07EFA3D
:1005C0002078012807D12B7963712389002B00D172
:1005D000638101332381637901337B7123893B81FB
:1005E000A3787B810023A370F8BDC04674FFFF1F72
:1005F00018040020729F000010B5CA780C1C083245
:10060000023109F05BFAE078083010BD00B5C9B0DE
:1006100003F034F8002802DD03F040F8F8E704A8FE
:100620001A4904F0E5FC04A908A804F01CFD08A878
:10063000174904F078FD174904F075FD164904F0D8
:1006400072FD164B196804F06EFD154904F06BFD40
:10065000144904F068FD011C684604F004FD08A874
:1006600004F082FC04A804F07FFC8022002368468A
:1006700008A9520004F07AFD08A9029A0A4802F07B
:1006800049F9684604F070FC49B000BD6E9E000058
:10069000739E0000889E0000949E0000A4FDFF1F32
:1006A000AD9E00009B9E0000C8FFFF1F10B5CCB0A0
:1006B000041C24490CA804F09BFC211C0CA804F089
:1006C00029FD011C684604F0CEFC0CA804F04CFC8B
:1006D00008A81D4904F08CFC08A90CA804F0C3FC70
:1006E00069460CA804F016FD184904F01CFD1849D1
:1006F00004F019FD174B196804F015FD164904F0B4
:1007000012FD164904F00FFD011C04A804F0ABFC17
:100710000CA804F029FC08A804F026FC8022002381
:1007200004A80CA9520004F021FD0CA9069A0C485B
:1007300002F0F0F804A804F017FC684604F014FC7A
:100740004CB010BDB09E00006E9E0000889E000060
:10075000949E0000A4FDFF1FAD9E00009B9E000024
:10076000C8FFFF1FF0B585B00193FE238370041C02
:100770000123E2708371164B4171171C9A796D4603
:10078000027101329A7101235B420E352B80C31C2A
:1007900000931E1C009AB3B20532BA1892B29A4264
:1007A00005D03078291CFFF763FE0136F2E7019887
:1007B000291CFFF75DFEE1782B88221C0832535478
:1007C000E178381C52181B120830537005B0F0BD88
:1007D00074FFFF1FE0B58AB001930E9B0D1C01A9A9
:1007E0004B600F9B061C8B600023CB600B614B6141
:1007F000109B8A838B6147238B774323CB776B4690
:10080000053321270022281CDA7708303A1C09F02A
:1008100055F94C23EB71281C311C3A1C9823FFF727
:10082000A1FF0AB0E0BDFFFF10B5A8B003F02EFC99
:1008300000283FDD03F03AFC04ACC1B2221C0220C8
:1008400001ABFFF727FE0028F0D0E379162B14D078
:100850001E2BEBD11C49099807F082F808F0FCFF29
:100860001A4B186059601849089807F079F808F091
:10087000F3FF174B18605960D8E76B461E331B888F
:10088000422B03D1134B069A1A70CFE72F2BCDD1F1
:100890000698114C002808DD08F06CFF074B064A4B
:1008A00007F006FD20606160C0E7054A054B226045
:1008B0006360BBE728B010BD0000000000002440CA
:1008C0000000000000000000E12E6542B0FFFF1FA5
:1008D00060030020E806002078FDFF1FC046C046E8
:1008E00010B50E4BC6B01A6824AB01321A80012233
:1008F0009A70002222ACDA702C230422E371201CAF
:10090000DD23FA21FFF72EFF211C6846FFF774FE56
:10091000011C684603F0CEF846B010BD100400205C
:10092000F0B5C5172D1AED0F314B451BAA00C9B004
:10093000041CD05807F03EF92E4BED005B19071C44
:1009400018685968294B284A07F0B2FC08F0D6FF0E
:10095000294B061C5B1918685968244B224A07F07A
:10096000A7FC08F0CBFF254B01905D19286869684A
:1009700008F0C4FFFE239B05019A02930023049311
:1009800005936B4607929C846A461023D38469467C
:1009900001230932D3770A310022CA770890C91897
:1009A0000320C87703A9CA776A460D32D37702A914
:1009B00026A8252224AC0397069609F07FF8272362
:1009C0002522E371201CFE23FA21FFF7CBFE211C18
:1009D00002A8FFF711FE011C02A803F06BF849B052
:1009E000F0BDC046C046C04600000000D0126341C2
:1009F0007001002088030020E8FEFF1FE0FFFF1FBA
:100A000070B5C6B06A4606231371082353711023CC
:100A100093710423D3710925032322AC002613729A
:100A200069462A1C24A8009609F048F82A1C32239B
:100A3000201CFA21E671FFF795FE211C6846FFF79E
:100A4000DBFD011C684603F035F846B070BDFFFFC2
:100A5000F0B54F4BC9B01E685F684A4B484A301C1E
:100A6000391C06F00BFD002809D0474A474B301CC3
:100A7000391C08F087F806F06FFD84B200E0041C12
:100A8000444B042019685A6800910192424A536B02
:100A9000AC321568414AD917CB1A1278D90F012305
:100AA0001A409A401D4015433D4A8543127808205C
:100AB0001A40920015433B4A8543127810201A4091
:100AC000D2001543384A854312781A401201154363
:100AD000364A1278134020225B0195431D43402380
:100AE0009D43334B8A0115431A78324B7F21D20143
:100AF0000D4018685968154308F008FE2E4B071C76
:100B00001868596808F002FE2C4B061C18685968D2
:100B10001D4A1E4B08F036F808F0F8FD284B0497E4
:100B20001988009A019B029203936A4605960690E3
:100B3000D183252194836944002409AB0D7014846A
:100B400024AD548402A91E2226A81C7008F0B6FF0A
:100B500018231E22FA21281CEB71FFF703FE291C23
:100B600002A8FFF749FD174B021C1978A14204D0D7
:100B7000154802A91C7002F036F849B0F0BDC04615
:100B80000000000000000000000000000000244001
:100B90007806002020070020CC010020E806002075
:100BA0005900002061FFFF1FB8FFFF1F68010020F0
:100BB000580000206806002080030020B0FFFF1FBF
:100BC0000C07002060FFFF1FF8060020C046C0464B
:100BD000F0B5494B494D1B68CDB029680593059C7C
:100BE00000292BD1464B1868221AFA2A26D91C60F4
:100BF0000C22012308A806AE2B60079108F067FFBE
:100C00004223338047226B469A766B464322DA763C
:100C1000311C14222AA808F051FF28AF1421F971C1
:100C20001422FA21D623381CFFF79CFD391C301CF6
:100C3000FFF7E2FC011C301C03F0FEF92A68012AD0
:100C400035D12F4E3068231AFA2B30D92D4B186826
:100C50005968284B264A06F0F7FB002825D00021CA
:100C60000C2208A83460079106AE08F030FF2F234D
:100C7000338047226B469A766B464322DA76311CE4
:100C800014222AA808F01AFF28AF1421F97114229F
:100C9000FA21D623381CFFF765FD391C301CFFF7FD
:100CA000ABFC011C301C03F0C7F902232B602A683F
:100CB000022A18D1124B1868221AFA2A13D91C607A
:100CC00000232B60002300930193029328A90E4A6E
:100CD000FA20FFF77FFD28A906A8FFF78DFC011C6D
:100CE00006A803F0A9F94DB0F0BDC046C046C04605
:100CF00000000040E17A84BF8C09002088060020B3
:100D00006CFDFF1F78FDFF1FD2040000C046C046E7
:100D1000F7B5634F051C3A687E680C1C0192101CE5
:100D2000311C5A4B584A06F095FB002827D0281C46
:100D3000211C564B544A06F0A1FB00281FD0534BF0
:100D4000514A0198311C06F099FB331C002802D14E
:100D500080221206B318191C2A1C231C019806F0C5
:100D600085FF4B4A4B4B06F093FB4E4B1A6800280D
:100D700001D0013A02E0002A01D001321A60019844
:100D8000311C424B404A06F079FB002827D0281C32
:100D9000211C3E4B3C4A06F05DFB00281FD03B4B1C
:100DA000394A281C211C06F069FB231C002802D1AB
:100DB00080221206A318191C019A331C281C06F065
:100DC00055FF334A334B06F063FB364B1A68002855
:100DD00001D0013202E0002A01D0013A1A60231C3E
:100DE0002A1C3A607B602F4B1E68002E16DD281CE3
:100DF000211C264B244A06F041FB002818D1244A26
:100E0000244B281C211C06F031FF041CB4200D1CAF
:100E1000704308F0AFFC221C2B1C11E0002E24D0E4
:100E2000281C211C194B184A06F014FB00280AD074
:100E3000B420704308F09EFC021C0B1C281C211CD3
:100E400006F014FF0FE02A1C231C1148114908F07A
:100E500029F9041CB4200D1C704308F08BFC221CE3
:100E60002B1C08F01FF9051C0C1C0F4B281C1A68C2
:100E70005B68211C06F0FAFE074A084B06F0F6FEF6
:100E800003B0F0BDC046C0460000000000000000F6
:100E90000000000000806640000000000080564016
:100EA0008006002070FFFF1F68FFFF1FC046C0467E
:100EB00070B5CAB00E1C08F0CFFC154B00241A68A0
:100EC0005B6806F0D3FE134B1A685B6808F0EAF81B
:100ED00008F014FD051C301C009408F0BDFC0E4BFE
:100EE0001A685B6806F0C2FE08F008FDCD222B1CD4
:100EF000019026A90294FA20FFF76CFC26A904A809
:100F0000FFF77AFB011C04A803F096F84AB070BD05
:100F1000D0FFFF1F78FDFF1FF0060020FFFFFFFF3F
:100F2000F0B5634B89B018685968584B564A07F0BA
:100F3000BFF9604B0090019118685968534B524AB1
:100F400007F0B6F9061C0F1C321C009801993B1CD7
:100F500006F08CFE4E4A4F4B07F014FE4E4A4F4BA4
:100F600007F010FE4E4A4F4B07F0A2F904F0A8FB21
:100F70004D4A4E4B07F006FE4F4B02900391186806
:100F80005968424B404A07F093F94C4B041C0D1C26
:100F9000186859683D4B3C4A07F08AF9021C0B1C43
:100FA000201C291C08F07EF8021C0B1C02980399D7
:100FB00007F0E8FD009A019B041C0D1C301C391C35
:100FC00008F070F8384A394B07F0DCFD3C4B0591CE
:100FD00000900291186859683A4B1A685B6808F0EB
:100FE00061F8221C069007912B1C201C291C07F07D
:100FF000C9FD009A029B061C0F1C0098029907F07D
:10100000C1FD021C0B1C301C391C06F02FFE04F025
:10101000AFFB059A80231B06061C0F1C0098D118F5
:10102000221C2B1C04F0A0FB321C041C0D1C3B1CBE
:101030000698079904F098FB194A1A4B061C0F1CD6
:10104000201C291C07F09EFD134A144B07F030F9B1
:10105000FFF75EFE124A134B041C0D1C301C391C9A
:1010600007F090FD0C4A0D4B07F022F908F046FC02
:10107000291C061C201C08F041FC011C301CFFF739
:1010800017FF09B0F0BDC04600000000D012634158
:10109000000000000000E03F00000060FB2109406C
:1010A000000000000080664000000000802DFB4032
:1010B00068060020C0FFFF1F80030020E00600201C
:1010C000780600201809002010B5A8B002F01CFD19
:1010D00000285EDD02F028FD04ACC1B2221C012014
:1010E00001ABFFF7D7F90028F0D0E3791E2B46D0EB
:1010F00006D8012B3ED0002B0DD0182B13D0E5E7DE
:101100002F2B0BD04A2B30D0282BDFD106AB1888E1
:10111000FFF706FCDAE7FFF773FCD7E71E4B1A6808
:1011200001321A60D2E7089808F024FB1B4B1860C4
:101130005960099808F01EFB194B186059600DABF7
:10114000187808F055FB174B186059606B4635331B
:10115000187808F04DFB144B18605960134B1B783E
:10116000002BB3D0FFF7DCFEB0E7089808F074FB63
:101170000F4B0BE06B46DA8C0E4B1A80A6E70E493C
:10118000099806F0EDFB08F067FB0C4B18605960FE
:101190009CE728B010BDC04600040020680600206F
:1011A0008003002018070020A8FFFF1F590000201F
:1011B000780600200C070020E12E65422007002061
:1011C00000B50023CBB0B42200900193029326A96E
:1011D000064BFA20FFF7FEFA26A904A8FFF70CFA3F
:1011E000011C04A802F028FF4BB000BD000084429F
:1011F00030B5624BCBB018700024002863D0604932
:10120000604BFA201A685B680A604B60AF235B0092
:10121000B422009326A95C4B01940294FFF7DAFAFA
:1012200026A904A8FFF7E8F9011C04A802F004FFAE
:101230008523B422DB0526A9009401940294FA20A8
:10124000FFF7C8FA26A904A8FFF7D6F9011C04A8DD
:1012500002F0F2FEFA2300938523B422DB0526A9CF
:1012600001940294FA20FFF7B5FA26A904A8FFF723
:10127000C3F9011C04A802F0DFFEB422434B26A9E7
:10128000009401940294FA20FFF7A4FA26A904A876
:10129000FFF7B2F9011C04A802F0CEFEB4223C4BC9
:1012A00026A9009401940294FA20FFF793FA26A944
:1012B00004A8FFF7A1F9011C04A802F0BDFE01205B
:1012C000FFF77EFF57E0334DB4222F4B26A9009441
:1012D00001940295FA20FFF77DFA26A904A8FFF7EA
:1012E0008BF9011C04A802F0A7FE8523B422DB05BC
:1012F00026A9009401940294FA20FFF76BFA26A91C
:1013000004A8FFF779F9011C04A802F095FE8523D3
:10131000B422DB0526A9009401940295FA20FFF778
:1013200059FA26A904A8FFF767F9011C04A802F0DE
:1013300083FEB422154B26A9009401940295FA204D
:10134000FFF748FA26A904A8FFF756F9011C04A8DC
:1013500002F072FE26A9B4220D4B0094019402956E
:10136000FA20FFF737FA26A904A8FFF745F9011C70
:1013700004A802F061FE4BB030BDC0465900002009
:1013800068FFFF1F20070020000048420000444281
:1013900000007C420000A64200B50020CBB0FFF761
:1013A0000FFF0023009301930293FE23CC229B05A1
:1013B00026A9FA20FFF70EFA26A904A8FFF71CF9C0
:1013C000011C04A802F038FE4BB000BDFFFFFFFF78
:1013D00070B50024CCB0051C0094019460D0B422F8
:1013E000614B28A90294FA20FFF7F4F928A906A86E
:1013F000FFF702F9011C06A802F01EFE8523B422A5
:10140000DB0528A9009401940294FA20FFF7E2F981
:1014100028A906A8FFF7F0F8011C06A802F00CFEA8
:10142000B422524B28A9009401940294FA20FFF7A9
:10143000D1F928A906A8FFF7DFF8011C06A802F0D9
:10144000FBFDB4224A4B28A9009401940294FA208F
:10145000FFF7C0F928A906A8FFF7CEF8011C06A8D7
:1014600002F0EAFD434B01221A70434B1B680593BF
:10147000059AFA239B00D218404B1A60404A002379
:101480001360404A1360404B186808F073F93F4BF3
:1014900018605960334B324A3D490A604B605BE04B
:1014A0003C4EB422304B28A90296FA20FFF792F95D
:1014B00028A906A8FFF7A0F8011C06A802F0BCFDA9
:1014C0008523B422DB0528A9009401940294FA2014
:1014D000FFF780F928A906A8FFF78EF8011C06A8D7
:1014E00002F0AAFD8523B422DB0528A9009401940B
:1014F0000296FA20FFF76EF928A906A8FFF77CF8F4
:10150000011C06A802F098FDB422184B28A90094EB
:1015100001940296FA20FFF75DF928A906A8FFF7C3
:101520006BF8011C06A802F087FD114BB42228A914
:10153000009401940296FA20FFF74CF928A906A816
:10154000FFF75AF8011C06A802F076FD094B1D7042
:101550000B4B1D600B4B1D60FFF71EFF4CB070BDA9
:10156000000000000000000000004842000044426B
:1015700000007C4261FFFF1F8C0900201404002042
:101580006C010020BCFFFF1F88FDFF1F0804002026
:10159000580600200000A64208B5034B1B78002B1C
:1015A00001D0FFF733F808BDB8FFFF1F70B53A4B05
:1015B00001241C70394B8EB01020211C1C7001F0CE
:1015C00039FD1120211C01F035FD0021102001F012
:1015D000FFFC1A2001F016FE1A2002F021F90D205E
:1015E00002F064FBFA20400101F08CFD2C4D281C18
:1015F00001F016F82B4906A803F0FAFC2A490AA8BC
:1016000003F0F6FC06A90AAA281C01F083F8061CC0
:101610000AA803F0A9FC06A803F0A6FC002E1AD025
:10162000224B0AA81C70224B196803F0E1FC0AA99E
:101630005022281C01F006F90AA803F095FCFFF7D8
:10164000ABFF1C4C1C492368201C5B68092298478F
:10165000201C03F047FC194B194C18685968194BAA
:101660001A685B6806F002FB0B1C90210091A02118
:10167000019102210291002103910421021C049195
:10168000201C01F019FA201CFF2101F0E0FA201CB7
:1016900001F05EFA0EB070BD60FFFF1F680300200E
:1016A000C8FFFF1FBF9E0000CA9E0000B8FFFF1FBB
:1016B000A4FDFF1F240C0020D79E000098FDFF1FF3
:1016C000F806002050010020F0B587B001F0D6FFE9
:1016D000002800DCACE001F0E1FF564EC4B2051C6E
:1016E000211C301C03F00AFD5348E9B203681B6853
:1016F0009847B3680A2B0CD902A8311C01220B238E
:1017000003F063FD301C02A903F0B8FC02A803F04B
:101710002BFC301C494903F014FD494D002804D02E
:10172000484B00221A6002232B60301C464903F00C
:1017300008FD002804D0434B00221A6001232B60CF
:10174000296801292FD13F4E3268019201322AD0F7
:101750003E490B78002B21D03D4F2C2C06D07D2C00
:1017600004D0381C211C03F0C9FC17E0374A0023C1
:10177000381C137003F04BFD019A364B0132920076
:10178000D0503549381C03F081FC33687D2C02D0E1
:101790000133502B01DD01235B4233603A2C02D12F
:1017A0002A4901230B702B68022B8FD1254D2B6802
:1017B0005A1C8BD025490A78002A32D0244E2C2C72
:1017C00006D07D2C04D0301C211C03F097FC28E0AF
:1017D0001E4900220A70032B07D0052B05D00A2BC7
:1017E00003D0102B01D0162B01D101332B602A68B6
:1017F000302A01D134232B60301C2F6803F007FD01
:101800000137164BBF00F8501349301C03F03EFC63
:101810002B687D2C02D00133502B01DD01235B426C
:101820002B603A2C00D051E7084901230B704DE79B
:1018300007B0F0BDBC010020240C0020E19E000098
:1018400084FDFF1F68FDFF1FEC9E00006006002066
:101850007407002084070020AF9E0000CC01002008
:1018600008B5034B1B78002B01D0FEF71FFF08BD06
:10187000B8FFFF1F1FB50649684603F0F4FB684632
:10188000FFF7EEFF684603F06FFB05B000BDC046F2
:10189000AC0100201FB5002802D0FFF7EBFF09E0E4
:1018A0000549684603F0DFFB6846FFF7D9FF684645
:1018B00003F05AFB05B000BDFC0600201FB5064929
:1018C000684603F0D0FB6846FFF7CAFF684603F09E
:1018D0004BFB05B000BDC046640700201FB50028C3
:1018E00002D1FFF7EBFF09E00549684603F0BBFBB7
:1018F0006846FFF7B5FF684603F036FB05B000BD4C
:1019000058010020F0B53E4B85B01B6803933D4B5A
:10191000039D1A78002A02D1FA22D20000E03A4A46
:101920003A4B1868291A914250D9394F1D603868CE
:10193000796807F0E3FF374C061C2068616807F000
:10194000DDFF011C301CFFF7B3FA334B0121197086
:10195000324E334B32681B6801929A4216DA314B91
:10196000206861681A78304B002A04D01A685B68D6
:1019700006F07CF903E01A685B6807F093FB019BB3
:101980002060616025480133036016E0274B18682A
:1019900007F0F0FE021C0B1C3868796806F066F947
:1019A000234B386079601A68012101321A601D4B9F
:1019B0001A784A401A70002333601D4B1A681D4B79
:1019C0001B689A4202DD0020FFF702FD0F4B1B68E7
:1019D000ED1A194B1B689D4210D90F4B1A781C1C2D
:1019E000002A0BD0074A1378002B03D0134B012297
:1019F0001A7001E0FFF73EFF0023237005B0F0BD31
:101A00008C09002068010020581B000014040020ED
:101A10000804002058060020610600206C01002008
:101A200070FDFF1F64FDFF1F90FDFF1F74FDFF1F72
:101A3000BCFFFF1F80FDFF1FA8FDFF1FD8FFFF1F7A
:101A4000F0B5D3B006900791061C069A0799B31A11
:101A50008B4200DB84E12EAD317800202A1C09ABDB
:101A6000FEF718FD002800D178E10CA8291CFEF72C
:101A7000C3FDEB79071C2D2B05D04C2B14D0182B54
:101A800000D069E1E7E0B74B00250CA8391C1D60C8
:101A900002F010F8B44BB5481D60B54B0CA91D60A1
:101AA000B44B3A1C1D70D3E037AB1B88CB2B00D056
:101AB00054E1B14C30992068059105F0FFFC0028F5
:101AC00000D0BFE0059AFE212260319C8905201CD0
:101AD00005F0F4FC00280AD0FE213298890505F0B3
:101AE000EDFC002800D00120FFF782FBAAE0802156
:101AF000201CC90505F0E2FC00280AD0FE2132981E
:101B0000890505F0DBFC002800D00120FFF760FC10
:101B100098E0201C994905F0D1FC002819D0FE213D
:101B20003298890505F0CAFC00280ED0944B1B782A
:101B3000002B07D0934BAC331B68012B02D1924A88
:101B400013707FE0FFF796FE7CE00020FFF7A2FE17
:101B500078E08121201CC90505F0B0FC00280CD0DC
:101B6000FE213298890505F0A9FC854B002802D09A
:101B700001221A7066E0187064E0201C834905F0A9
:101B80009DFC00280DD0FE213298890505F096FCB9
:101B9000002803D00120FFF7A1FE53E0FFF78EFEDF
:101BA00050E0201C7A4905F089FC00280AD0FE216B
:101BB0003298890505F082FC002800D00120FFF74B
:101BC000FFFA3FE0201C734905F078FC00280CD098
:101BD000329807F041FE704B18605960339807F057
:101BE0003BFE6E4B186059602CE08221201CC90519
:101BF00005F064FC002802D0FFF7CEFB22E0201C99
:101C0000674905F05BFC002802D0FEF769FE19E089
:101C1000201C644905F052FC002813D0614B00934E
:101C2000504B186805F0C6FF002301900293291C51
:101C3000CB22059BFF20FEF7CDFD0CA8291CFEF74B
:101C4000DBFC071C4B4B002248481A700CA93A1CBD
:101C500000F0C9FF82E037AC2378002B4AD0454B17
:101C600000221A7041483A1C0CA900F0BCFF2378EE
:101C70006A46DD321478012B20D1329807F07AFDC4
:101C8000494FE5007F1938607960339807F072FD9D
:101C9000464F474B7F193860796034985D1907F0DB
:101CA00069FD444A286069603099A300995035AABB
:101CB0001188414A013499502B4B19E0022B4DD128
:101CC000329807F057FD3D4FE5007F193860796085
:101CD000339807F04FFD3A4F3A4B7F1938607960DF
:101CE00034985D1907F046FD28606960204B013487
:101CF0001C6033E0FEF7ACFE334B344C1B78002BFA
:101D000008D1214B1B78002B04D12378002B01D064
:101D1000FFF742FC2378012253402370329807F0EA
:101D200029FD2B4B18605960339807F023FD294B90
:101D300018605960349805F03DFF1A4905F02CFCF5
:101D400007F08AFD244B18605960244B1B78002B48
:101D500004D0FFF7E5F801E0FEF77AFE013674E6FD
:101D600053B0F0BD0004002010040020F80600204D
:101D70001007002060FFFF1FA0FDFF1F0000404074
:101D800068010020CC010020D8FFFF1F0000A04008
:101D90000000C0400000E040F0060020D0FFFF1F20
:101DA000000010410000204188030020E8FEFF1FD2
:101DB000E0FFFF1F700100202807002060000020C6
:101DC000D80000209006002061FFFF1F740600204D
:101DD000C0FFFF1FE0060020180900205900002066
:101DE00000B5084BC1B01A78002A09D00022694614
:101DF00005481A7000F0C1FE011C6846FFF720FE7E
:101E000041B000BD68030020F806002010B5274B44
:101E1000CCB01B78041C002B46D025490CA803F03D
:101E2000E7F8211C0CA803F075F9011C684603F0C3
:101E30001AF90CA803F098F81E4908A803F0D8F87E
:101E400008A90CA803F00FF969460CA803F062F981
:101E5000194903F068F9194903F065F9184B196835
:101E600003F061F9174903F05EF9174903F05BF9D4
:101E7000011C04A803F0F7F80CA803F075F808A8F3
:101E800003F072F88022002304A80CA9520003F08A
:101E90006DF90CA9069A0D4800F03CFD04A803F06A
:101EA00063F8684603F060F84CB010BDB8FFFF1F40
:101EB000F79E00006E9E0000889E0000949E000029
:101EC000A4FDFF1FAD9E00009B9E0000C8FFFF1FEA
:101ED00030B591B00A22051C1A2104A803F0E6F8D7
:101EE00004A908A803F0BFF808A8144903F01BF9D7
:101EF0000A22041C291C0CA803F0D8F80CA9201CE9
:101F000003F008F9011C684603F0ADF80CA803F0D3
:101F10002BF808A803F028F804A803F025F8694670
:101F20000CA803F0A0F80CA8FFF770FF0CA803F0B2
:101F30001BF8684603F018F811B030BD0C9F000084
:101F400037B5194B194A1B6810680193019B00288B
:101F500009D117490C681D1B164CA54222D90B60EC
:101F6000012313601AE001280AD1114908681C1ADC
:101F70001048844216D90B600223136008200DE03C
:101F800002280FD10A4908681C1A0A48844209D954
:101F90000B6000231360084A04201370FFF798FFBA
:101FA000FFF768FC37BDC0468C0900207006002092
:101FB00064FFFF1FD6060000D8FFFF1F08B5084BBF
:101FC0001B78002B01D0FFF79DFC064B1B78002BE4
:101FD00001D0FFF7B5FFFEF7FBFDFFF775FB08BD6E
:101FE00061FFFF1FD8FFFF1F10B5114C201C00F030
:101FF000E0FC002812D0201C00F0F3FD852802D15F
:102000000C4B01221A70201C00F0EBFD832805D137
:10201000094B0122201C1A7000F09AFDFFF7E0FE28
:10202000FFF752F8FEF700FCFFF7C8FF10BDC046EF
:10203000F80600206803002060FFFF1FF8B5162196
:102040001522294800F076FCE1225202274928484F
:1020500000F0A3F8274E2849301C02F0C9FF274D95
:10206000274C291C221C301C07F0D4FC254E264985
:10207000301C02F0BDFF291C221C301C07F0CAFCDA
:10208000224E2349301C02F0B3FF291C221C301CB5
:1020900007F0C0FC1F4E2049301C02F0A9FF291C8C
:1020A000221C301C07F0B6FC1C4E1D49301C02F0EF
:1020B0009FFF291C221C301C07F0ACFC194F1A4E44
:1020C000391C301C02F094FF291C221C301C07F024
:1020D000A1FC164E391C301C02F08AFF301C291C52
:1020E000221C07F097FCF8BDF8060020100C002019
:1020F000C8FFFF1FAC0100200E9F0000694F0000C9
:1021000060FDFF1FFC060020229F000064070020E6
:10211000369F000058010020479F00006C030020FC
:10212000589F0000AF9E000074070020BC010020F3
:1021300038B5051C081C0C1C07F09EFD2B68021C02
:102140005B68281C211C984738BD08B5FFF7F0FFD5
:1021500008BD08B5002202F0D7FE08BD38B5041C42
:10216000FFF7E6FF051C201C02F0BCFE281838BD56
:1021700038B5041CFFF7EDFF051C201C02F0B2FE71
:10218000401938BD38B50022041C02F0BDFE051C04
:10219000201C02F0A7FE281838BD0160704710B55A
:1021A000041C206803689B689847002804DD2068A9
:1021B0000368DB689847F4E710BDFFFFF0B50D1C1E
:1021C00085B00021171C0193041C02F011FF134E6F
:1021D00033680293029A00923368009A0393039B38
:1021E0009B1A019A934216D2286803689B68984705
:1021F00000280ADD28680368DB689847C1B2002917
:10220000F2D0201C02F07AFFEEE7201C391C02F00D
:10221000D7FF0130E0D0201C05B0F0BD8C090020B4
:10222000F0B50D1C85B0002101921F1C041C02F0AA
:10223000DFFE164E33680293029A00923368009ACA
:102240000393039B9B1A0A9A93421CD22868036843
:102250009B68984700280ADD28680368DB68984770
:10226000C1B20029F2D0201C02F048FFEEE7201C8A
:10227000019902F0A5FF013005D1201C391C02F0A4
:102280009FFF0130DAD0201C05B0F0BD8C09002082
:10229000F0B50D1C85B0002101921F1C041C02F03A
:1022A000A7FE194E33680293029A00923368009A8F
:1022B0000393039B9B1A0B9A934222D228680368CC
:1022C0009B68984700280ADD28680368DB68984700
:1022D000C1B20029F2D0201C02F010FFEEE7201C52
:1022E000019902F06DFF01300BD1201C391C02F066
:1022F00067FF013005D1201C0A9902F061FF01300F
:10230000D4D0201C05B0F0BD8C09002070B58CB075
:102310000C1C061C00216846151C02F069FE211CDD
:1023200004A802F0A0FE04AA2B1C08A8311CFFF789
:1023300045FF08A9684602F0A1FE08A802F014FEB5
:1023400004A802F011FE211C684602F039FF041CAB
:10235000684602F009FE0134601E8441E0B20CB010
:1023600070BDFFFFF0B58DB00D1C071C0021684645
:10237000141C1E1C02F03CFE291C04A802F073FE73
:1023800004AA139B08A8391CFFF718FF08A9684680
:1023900002F074FE08A802F0E7FD04A802F0E4FDD4
:1023A0006846291C02F00CFF01301CD0211C684635
:1023B00002F006FF311C051C684602F001FF031CF9
:1023C0006A1C10D0421C0ED0A26808A8AA18694640
:1023D00002F0FBFE08A9129802F050FE08A802F0D5
:1023E000C3FD012404E01298044902F04FFE0024CA
:1023F000684602F0B9FD201C0DB0F0BDAF9E000094
:102400001FB5041CFFF7CBFE20680A49FFF7A6FEA4
:102410006846094902F0ECFDFA2269469200201C48
:10242000FFF774FF041C684602F09EFD201C04B0F8
:1024300010BDC04678A0000091A000001FB5041C8C
:10244000FFF7ADFE20680A49FFF788FE6846094994
:1024500002F0CEFDFA2269469200201CFFF756FFDB
:10246000041C684602F080FD201C04B010BDC0466C
:102470007BA0000091A0000073B5041CFFF7DEFFF5
:10248000002398421ED0FA20C00000F03BFE0E4B05
:102490001A681E1C0192019D33680093009A0B4B31
:1024A000521B9A420DD8201CFFF7AAFF002804D027
:1024B000074800F027FE012304E0642000F022FE1C
:1024C000EAE70023181C76BD8C090020B70B00003A
:1024D000DC05000070B592B002AC0E1C051C00219A
:1024E000201C02F085FD002E01D100242DE0281CC7
:1024F000FFF755FE28681849FFF730FE174906A870
:1025000002F076FD16490AA802F072FD15490EA8E0
:1025100002F06EFDFA239B0006A90AAA0193281C6B
:102520000EAB0094FFF71EFF051C0EA802F01CFD69
:102530000AA802F019FD06A802F016FD002DD4D05D
:10254000201C02F064FE0124307002A802F00CFD91
:10255000201C12B070BDC04694A0000091A00000E5
:102560009FA000008DA0000070B592B0041C0D1C4F
:1025700002A8002102F03CFD201CFFF710FE20689D
:102580002449FFF7E2FD291C2068FFF7F1FD224EE8
:1025900006A8311C02F02CFD204D0AA8291C02F0CF
:1025A00027FDFA239B0006AA211C00930EA80AAB64
:1025B000FFF736FE0EA902A802F060FD0EA802F099
:1025C000D3FC0AA802F0D0FC06A802F0CDFC311C16
:1025D0000AA802F00DFD02A80AA902F0F1FD0124EB
:1025E00001300ED1291C0EA802F002FD02A80EA98E
:1025F00002F0E6FD0419631E9C410EA8E4B202F04D
:10260000B3FC0AA802F0B0FC02A802F0ADFC201C4A
:1026100012B070BDA8A0000091A00000B3A00000FF
:1026200073B56E460736311C051CFFF753FF041EB9
:102630000ED03378012B0BD0281C0121FFF794FF1B
:10264000002804D0281CFFF717FF002800D1002421
:10265000201C76BD70B592B0041C0E1C02A800218F
:10266000151C02F0C5FC201CFFF799FD20682349CA
:10267000FFF76BFD311C206802F012FC2068204936
:10268000FFF763FD291C206802F00AFC20681D4941
:10269000FFF764FD1C4D06A8291C02F0A9FC0AA83E
:1026A0001A4902F0A5FC1A4B06AA00930EA80AAB21
:1026B000211CFFF7B5FD0EA902A802F0DFFC0EA851
:1026C00002F052FC0AA802F04FFC06A802F04CFCF3
:1026D000291C0EA802F08CFC0EA902A802F070FDC5
:1026E000041C0EA802F040FC02A802F03DFC0134DC
:1026F000601E8441E0B212B070BDC046BDA00000B3
:10270000C8A00000CAA0000091A00000CCA000005A
:102710001027000030B589B0151C041C684602F073
:10272000A2FC291C04A802F09EFC694604AA201CF5
:10273000FFF790FF041C04A802F016FC684602F0A4
:1027400013FC201C09B030BDF0B597B0041C0F1C61
:1027500002A80021161C1D1C02F04AFC201CFFF7D9
:102760001EFD20683049FFF7F0FC391C206802F09C
:1027700097FB20682D49FFF7E8FC311C206802F028
:102780008FFB20682A49FFF7E0FC291C2068FFF72F
:10279000F9FC284F06A8391C02F02AFC26490AA891
:1027A00002F026FC254E0EAD311C281C02F020FC48
:1027B000234B06AA211C019312A80AAB0095FFF730
:1027C00067FD12A902A802F059FC12A802F0CCFB86
:1027D000281C02F0C9FB0AA802F0C6FB06A802F0FA
:1027E000C3FB391C281C02F003FC02A8291C02F0C0
:1027F000E7FC012401300ED1311C12A802F0F8FBD5
:1028000002A812A902F0DCFC0419631E9C4112A864
:10281000E4B202F0A9FB281C02F0A6FB02A802F019
:10282000A3FB201C17B0F0BD0DA10000C8A0000044
:10283000EEA0000091A00000F1A000001BA100008C
:102840001027000070B588B0051C0E1C68460C49A6
:10285000141C02F0CDFB311C04A802F004FC231C64
:10286000694604AA281CFFF76FFF041C04A802F0A5
:102870007BFB684602F078FB201C08B070BDC046A8
:102880002BA10000F0B5041C87B0161C0191FFF7C6
:1028900086FC1B492068FFF758FC311C2068FFF7B5
:1028A00071FC184902A802F0A3FB02A9164A201CD9
:1028B000FFF72CFD0025071C02A802F055FBAF42D4
:1028C0001AD0201CFFF76BFC019DAE19B54206D053
:1028D00020682978036801351B689847F6E70B499B
:1028E00002A802F085FB201C02A9094AFFF70EFD91
:1028F000051C02A802F038FB281C07B0F0BDC0463A
:1029000040A100004CA10000881300004EA100006F
:102910001027000008B5FFF7B5FF08BD044B9871FC
:102920001A7852B2002AFBDA014B9879C0B270478C
:102930000060074010B5812342708370041C017051
:10294000081C012100F076FB2078012100F040FBFB
:102950006078002100F06EFB00F07CF9201C10BDB7
:1029600070B50E1C041C00210078151C00F030FB13
:1029700080203043FFF7D2FF281CFFF7CFFF2078DD
:10298000012100F025FB70BD38B5041C0D1C00783A
:10299000002100F01DFB7F202840FFF7BFFF002033
:1029A000FFF7BCFF0121051C207800F011FB281C5B
:1029B00038BD38B5041C407800F02AFB051E07D04E
:1029C000A378832B04D1201C12210822FFF7C8FF13
:1029D000281C38BD10B58378041C8B423CD0081CE1
:1029E0008038052838D804F05BFC252D37033714D0
:1029F000201C0C210022FFF7B3FFE278201C0921E4
:102A0000FFF7AEFF201C01218322FFF7A9FF8323DC
:102A10001EE0201C09210022FFF7A2FF201C0C2130
:102A20002322FFF79DFF201C01218522FFF798FF3D
:102A300085230DE0201C01218022FFF791FF8023D8
:102A4000A37009E0201C01218122FFF789FF812367
:102A5000A370012000F056FB10BDFFFFFFFFFFFF3A
:102A600038B5191C041C101C104B0F4A06F08AF8CC
:102A70000F4A104B05F01CFC04F06EFD020C051C07
:102A8000D2B2201C0621FFF76BFF2A0A201CD2B20B
:102A90000721FFF765FFEAB2201C0821FFF760FF5E
:102AA00038BDC046C046C0460000000080842E41AC
:102AB0000000000080844E40F0B585B00092019384
:102AC0000AAB1E780BAB1D780CAB1F780DAB1B78D7
:102AD000041C02930EAB1B7880210393FFF77AFF4F
:102AE000201C01218022FFF73BFF029A3E43324324
:102AF000201C1D21FFF734FF039A201C2A431E21AE
:102B0000FFF72EFF0422201C2621FFF729FF0322B6
:102B1000602D00D10522201C3121FFF721FF0A2260
:102B2000602D00D10C22201C3721FFF719FF201C3B
:102B300022213C22FFF714FF201C13213C22FFF727
:102B40000FFF009A019B201CFFF78AFF05B0F0BD24
:102B500010B54021041C0022FFF702FF201C0F21AA
:102B60000022FFF7FDFE201C00220D21FFF7F8FEDA
:102B7000201C8521FFF72EFF10BDF8B50F1C122178
:102B8000041CFFF701FF4022051C1221201CFFF747
:102B9000E7FE2022201C154204D01221FFF7E0FEA0
:102BA00000201DE01021FFF7EFFE1321051C201C63
:102BB000FFF7EAFE2A1C061C0D21201CFFF7D0FEA1
:102BC0003D1CEB1B201CB34205DA0021FFF7DCFEA5
:102BD00028700135F5E71221FF22FFF7C1FE301CF6
:102BE000F8BD80787047F8B50F1C8121041C161CB5
:102BF000FFF7F0FE40210A1C201CFFF7B1FE201C4D
:102C00000E210022FFF7ACFE201C0D210022FFF751
:102C1000A7FEF2B2201C2221FFF7A2FE207800219D
:102C200000F0D6F98020FFF779FE3D1CEB1BB34284
:102C300004DA2878FFF772FE0135F7E720780121E2
:102C400000F0C6F9201C8321FFF7C4FEF8BDC17057
:102C50007047FFFF154B80221968D2030A431A60A0
:102C6000134B5022DA7000229A701B78114B1B789C
:102C7000D90703D4902189000F4A02E080210F4A2E
:102C80008900116080229200990701D40C4900E06C
:102C90000C490A605A0703D4902292000A4B02E0C2
:102CA00080220A4B92001A607047C046348004406C
:102CB00000600740200C002018B0044008C0044009
:102CC0001CB004400CC0044014B0044004C00440D4
:102CD00010B50C4B041C1B78002B04D10A4A181C9D
:102CE0001278002A0CD0094A1378202B03D901232B
:102CF0002371002004E0581C1070054A0120D154B3
:102D000010BDC0468609002049090020870900201F
:102D1000280900207047FFFF024B1878024B1B78F0
:102D2000C01A70478509002084090020064A074917
:102D300013780978994204D9591C1170044AD05C5F
:102D400001E00120404270478409002085090020ED
:102D50004A090020054B064A1B7812789A4202D98C
:102D6000044AD05C01E00120404270478409002001
:102D7000850900204A090020F8B50E4B071C187879
:102D8000141C002803D10C4B1B78002B10D00B4EC9
:102D9000212335785B1B9C4202D901223A711C1C0D
:102DA0000748221C40192D1906F088FE3570201C9A
:102DB000F8BDC04686090020490900208709002087
:102DC00028090020002303710373034BFA229200A9
:102DD0000833826003607047D0A1000038B53C4CD6
:102DE0001023E578EDB21D4203D140222A4004D1E0
:102DF00027E0E3706B06F8D468E004231D40354BF0
:102E000017D000221A70344B344D1B682A7093423D
:102E100000D098472A78324B002A02D1012129702C
:102E20001A70D022A2701B78012223712D4B1A70C8
:102E30004AE001221A702C4B1D70C023A370237925
:102E400042E0A3796021DBB2194060290CD1202136
:102E50008B431F498B71254B1B68002B04D02449E1
:102E60000A70214A10789847A1781022184B0A401E
:102E700016D0012215400FD11A4918480A78007857
:102E8000904205D9501C087015498A5C1A7100E0FF
:102E90001D71D023A37017E0C0229A701B7913E034
:102EA00014490A709A7920210A439A710E4A1979B5
:102EB0001378C9B21F2B07D806480078002803D022
:102EC000581C10700C4AD1540223E37038BDC04620
:102ED00000600640200900206C09002087090020BE
:102EE00028090020880900208509002024090020E5
:102EF00084090020700900204A09002008B5024812
:102F0000FFF760FF08BDC04674090020024B1A6835
:102F100001321A607047C0468C09002010B50B4C76
:102F200023685A0301D501F05BFA23685A0501D5DD
:102F300000F016FC23681A0501D500F057FE23683F
:102F4000DA04ECD501F014F9E9E7C0463480044016
:102F500008B5FFF7E3FFFFFF014B00221A6070473F
:102F6000008104407047FFFF024A13681818106080
:102F7000181C7047ACFDFF1FEFF31380002821D110
:102F8000EFF31082002A1FD1EFF30583002B0FD03F
:102F9000101C0F2B0ED91A1C103A92080B49032053
:102FA00092000340521883401068D840C0B201E03C
:102FB00080204000EFF31182002A05D0824203D224
:102FC000101C01E0012040427047C04600E400E0D0
:102FD00010B51A2818D80C2358430C4A83581018D7
:102FE0001C7D027A224205D0002901D01A710BE023
:102FF0001A7209E043681A68002902D003210A43C3
:1030000001E002218A431A6010BDC046F0A1000011
:1030100000231A280AD80C235843054A815810184F
:10302000027A0B7C13405A1E9341DBB2181C704786
:10303000F0A10000F0B51A283DD80C273D1C4543EF
:103040001D4A54196368161C012901D0042912D1A4
:10305000784332583018147D007A20431075A2222C
:1030600052001A602022042901D1196814E019685D
:1030700091430A1C1EE0AA58247A107DA0431075C3
:10308000002902D08A1E012A12D8802252001A601A
:10309000022903D11A6803210A430BE003290AD14C
:1030A0001A6802210A431A601A6801218A4301E062
:1030B0000422FF321A60F0BDF0A1000072B60C4B82
:1030C0000C491A680C4B1B68096862B6480104D5A4
:1030D00032219142894149425B18FA2080004343E2
:1030E0000648821A06484243920D98187047C04617
:1030F00018E000E004ED00E08C0900207FBB000038
:103100005555010038B5041CFFF7D8FF051C002CED
:103110000FD0FFF7D3FF074B401B984206D9013C65
:10312000002C06D0FA239B00ED18F2E702F0ACF871
:10313000EFE738BDE70300001D4B8022D20510B534
:103140001A60802212061A601A4B002018601A4971
:103150001A4B1B4A1960282313601A4A1A4C136031
:103160001A4A13601A4A13601A4A13601A4A136003
:1031700009222260194C2060194C2160194C2360EF
:10318000194C2360194C2260194C206019480160C9
:1031900019490B6019490B60194B1A6002F098F835
:1031A000C8204000FFF7AEFF01F002FC10BDC04692
:1031B00000E100E004800340FFBF000008800340FE
:1031C0000C80034014800340008003401C800340B7
:1031D000248003402C80034034800340049003404B
:1031E000089003400C90034014900340009003406B
:1031F00004A0034008A003400CA0034014A0034017
:1032000000A00340264B80221968D2000A431A60AE
:10321000244A00231370244A1370244A1370244A4A
:103220001370244A1370244B1B78032B09D0152BE1
:1032300004D0002B08D1214A214B04E01F4A214B26
:1032400001E0214A214B1A60214B1B78042B0BD043
:10325000052B05D0012B0BD1D12292001D4B06E08E
:10326000D12292001C4B02E091221C4B92001A606A
:103270001B4BC204D20E1A70C0B2002258709A7052
:103280002C22DA70174BFF22196891430A1C402147
:103290000A431A60144B802252011A607047C046DC
:1032A00034800440190A002095090020200A0020DB
:1032B0001A0A002094090020D609002013030000F8
:1032C00040A0044018C004401302000004900440D1
:1032D000B0FDFF1F44A004401CC0044008900440FF
:1032E00000A006400CE400E000E100E010B5124B45
:1032F000132299789143032202400A43410701D5E2
:1033000010210A439A700F220B490240042A03D16C
:103310008A79402422438A715A7910218A430842CB
:1033200000D00A435A719A7910218A43840600D545
:103330000A439A7110BDC04600A0064008B5124B62
:103340001B685A051ED5114B1B78DBB2002B02D02F
:1033500001F09AFFF7E70E4A8021490111600D4AFA
:103360000D49D3700422FF320A600C490A600C4AEE
:1033700013700C4A13700C4B1B68002B02D00B4AC5
:1033800012781A7108BDC0463480044094090020A8
:1033900080E100E000A0064040A0044044A00440BA
:1033A000190A00209509002090090020D709002063
:1033B00038B5041C0B4B1D78EDB2002DFAD1201C42
:1033C0000121FFF737FE291C201CFFF701FE0C220C
:1033D0005443054B054AE1581C191160044B227AED
:1033E0001A7038BD94090020F0A100001C0A0020CA
:1033F000180A002030B5002901D080231843224A42
:103400001378141C98423ED0204A1268550539D5CD
:103410007F221340042B0FD004D8012B0FD10022A0
:103420001B4B0BE0052B04D0182B08D10022194BA5
:1034300004E00022184B01E0184B00221A604423DC
:10344000002900D060237F220240042A15D006D82C
:10345000012A17D1C022920013430D4A11E0052A18
:1034600006D0182A0ED18022D2001343094A08E060
:10347000C02292001343084A03E0802292001343C3
:10348000064A1360207030BDB0FDFF1F3480044039
:1034900044A0044050D004401CC0044008900440A4
:1034A00010B51A4A137898422ED0194909684C056C
:1034B00029D5032B0FD004D8002B0FD115490B6051
:1034C0000CE0152B04D0192B08D10021124B04E07D
:1034D0000021124B01E0124B0021196003280FD08C
:1034E00004D800280FD10F490A4B0BE0152804D04F
:1034F000192808D10C49084B04E00A49074B01E0A0
:103500000A49074B1960107010BDC046D60900204B
:103510003480044040A0044054D0044018C004400B
:103520000490044013030000130400001302000081
:1035300038B50E4B1A680023510514D50C4C1A28C7
:1035400010D80C2343430B4A0B4D9958D3181B7AC0
:10355000216001212B70FFF76DFD23682A781A7214
:10356000012300E02360181C38BDC04634800440AD
:1035700090090020F0A10000D7090020002070472A
:10358000F8B5214B071C1B685A053BD51F4B1B6820
:10359000002B02D01E4A12781A711E4E0023347876
:1035A0003F220134A2425B415B421C401A4D2B7802
:1035B000A3421CD1FFF7E0FC402813DC174A137923
:1035C0005BB2002BF2DA2B78002101333F209842C6
:1035D000494149420B401249C95CDBB2C9B2D171C1
:1035E0002B70E3E7FF28E1DD01F04EFEDEE70C4B38
:1035F000FFB21F550B4B01221A70084BE4B2AC22EC
:103600003470DA70F8BDC046348004401C0A0020D3
:10361000180A0020200A00201A0A002000A00640F4
:10362000960900209409002038B5041C4518AC42C6
:1036300004D02078FFF7A4FF0134F8E738BDFFFF7E
:1036400008B5044B1B78002B02D001F01DFEF8E7F3
:1036500008BDC04694090020064B074A1B78107825
:10366000DBB2C0B2834201D33F3000E00138C01A60
:103670007047C046200A00201A0A0020054B18781F
:10368000054BC0B21B78DBB2984200D24030C01A62
:103690007047C046190A00209509002010B5124B4A
:1036A00012491A780B78D2B2DBB29A4219D00133A0
:1036B0003F2400209C424041404203400C48DCB281
:1036C000C05C0C700B49C0B2096800290BD09A424B
:1036D00000D24032D31A1A2B05DC074B1B780B7231
:1036E00001E00120404210BD190A00209509002088
:1036F000D809002090090020D70900200A4B1A7829
:103700000A4B1B78DBB29A420AD0013300223F21D8
:103710009942524152421340054AD05CC0B201E086
:10372000012040427047C046190A00209509002038
:10373000D8090020064B1A78064BD2B21A70064BF5
:103740001B68002B02D0054A12781A727047C046D7
:1037500095090020190A002090090020D7090020AF
:1037600030B5254A1379990612D52449D4790B78B6
:10377000002001333F259D42404140420340204804
:10378000E4B20078834203D01E48C454DBB20B700D
:10379000D178194CC9B24BB2002B1ADA23795BB23B
:1037A000002B16DA184B19481D780378DBB29D42BE
:1037B00002D16C23E3700CE0013300243F259D42CD
:1037C000644164422340124CE45CDBB2E4B2D47145
:1037D0000370402319420ED0117919420BD00D4BC2
:1037E000002119700C4B1B688B4202D00B490978E1
:1037F00019722C23D37030BD00A00640190A002096
:1038000095090020D8090020200A00201A0A00206B
:1038100096090020940900201C0A0020180A0020A4
:10382000164B8022196812010A431A60144A0023B9
:103830001370144A14491370144A1370144A137005
:10384000144A1370144A1160144AD121890011607E
:10385000134AC104C90EC0B21170507093702C236A
:10386000D370104B104A19680A408021C9010A43DD
:103870001A600E4B802292011A6070473480044017
:10388000940A0020290A0020130300009C0A00204B
:10389000950A0020280A00200CB0044010B0044013
:1038A00000B006400CE400E0FF00FFFF00E100E094
:1038B00010B5124B132299789143032202400A4318
:1038C000410701D510210A439A700F220B4902408B
:1038D000042A03D18A79402422438A715A7910211B
:1038E0008A43084200D00A435A719A7910218A43C8
:1038F000840600D50A439A7110BDC04600B0064048
:1039000008B5124B1B681A051ED5114B1B78DBB28C
:10391000002B02D001F0B8FCF7E70E4A80218901A4
:1039200011600D4A0D49D3700422FF320A600C4920
:103930000A600C4A13700C4A13700C4B1B68002B66
:1039400002D00B4A12781A7108BDC0463480044078
:10395000280A002080E100E000B006400CB00440DE
:1039600010B00440940A0020290A0020240A0020F4
:10397000520A002038B5041C0B4B1D78EDB2002D07
:10398000FAD1201C0121FFF755FB291C201CFFF751
:103990001FFB0C225443054B054AE1581C191160CA
:1039A000044B227A1A7038BD280A0020F0A10000CA
:1039B000980A0020930A00207047704738B50E4BD4
:1039C0001A680023110514D50C4C1A2810D80C23A2
:1039D00043430B4A0B4D9958D3181B7A21600121A0
:1039E0002B70FFF727FB23682A781A72012300E067
:1039F0002360181C38BDC04634800440240A0020CF
:103A0000F0A10000520A002000207047F8B5214BB9
:103A1000071C1B681A053BD51F4B1B68002B02D0E7
:103A20001E4A12781A711E4E002334782722013460
:103A3000A2425B415B421C401A4D2B78A3421CD131
:103A4000FFF79AFA402813DC174A13795BB2002B70
:103A5000F2DA2B780021013327209842494149426C
:103A60000B401249C95CDBB2C9B2D1712B70E3E7DC
:103A7000FF28E1DD01F008FCDEE70C4BFFB21F552B
:103A80000B4B01221A70084BE4B2AC223470DA708E
:103A9000F8BDC04634800440980A0020930A0020F4
:103AA0009C0A0020950A002000B006402A0A002047
:103AB000280A002038B5041C4518AC4204D02078F0
:103AC000FFF7A4FF0134F8E738BDFFFF08B5044B4A
:103AD0001B78002B02D001F0D7FBF8E708BDC046E9
:103AE000280A0020064B074A1B781078DBB2C0B2C8
:103AF000834201D3273000E00138C01A7047C04626
:103B00009C0A0020950A0020054B1878054BC0B28E
:103B10001B78DBB2984200D24030C01A7047C046D2
:103B2000940A0020290A002010B5124B12491A7875
:103B30000B78D2B2DBB29A4219D001333F24002075
:103B40009C424041404203400C48DCB2C05C0C70D7
:103B50000B49C0B2096800290BD09A4200D240320A
:103B6000D31A1A2B05DC074B1B780B7201E00120DE
:103B7000404210BD940A0020290A0020530A002068
:103B8000240A0020520A00200A4B1A780A4B1B789C
:103B9000DBB29A420AD0013300223F2199425241BE
:103BA00052421340054AD05CC0B201E001204042BD
:103BB0007047C046940A0020290A0020530A0020BA
:103BC000064B1A78064BD2B21A70064B1B68002BB4
:103BD00002D0054A12781A727047C046290A00209E
:103BE000940A0020240A0020520A002030B5254AF9
:103BF0001379990612D52449D4790B780020013322
:103C00003F259D424041404203402048E4B20078B5
:103C1000834203D01E48C454DBB20B70D178194CD8
:103C2000C9B24BB2002B1ADA23795BB2002B16DA39
:103C3000184B19481D780378DBB29D4202D16C23E2
:103C4000E3700CE00133002427259D426441644267
:103C50002340124CE45CDBB2E4B2D4710370402325
:103C600019420ED0117919420BD00D4B0021197059
:103C70000C4B1B688B4202D00B49097819722C231C
:103C8000D37030BD00B00640940A0020290A0020FD
:103C9000530A00209C0A0020950A00202A0A0020CE
:103CA000280A0020980A0020930A0020204B802236
:103CB000196852010A431A601E4A002313701E4AF3
:103CC00013701E4A13701E4A13701E4A13701E4B47
:103CD0001B78062B04D0072B05D11C4A1C4B01E096
:103CE0001A4A1C4B1A601C4B1B78082B05D0142B4E
:103CF00007D1D1229200194B02E0D122184B920039
:103D00001A60184BC204D20E1A70C0B2002258704A
:103D10009A702C22DA70144B144A19680A408021D8
:103D2000C9030A431A60124B8022D2011A607047FD
:103D300034800440100B0020A50A0020180B00203E
:103D4000110B0020A40A0020B1FDFF1F1303000087
:103D500008C0044010C00440B2FDFF1F14C004405E
:103D60000CC0044000C006400CE400E0FFFF00FF70
:103D700000E100E010B5124B132299789143032221
:103D800002400A43410701D510210A439A700F22CD
:103D90000B490240042A03D18A79402422438A71C4
:103DA0005A7910218A43084200D00A435A719A79FD
:103DB00010218A43840600D50A439A7110BDC0467B
:103DC00000C0064008B5124B1B68DA041ED5114B23
:103DD0001B78DBB2002B02D001F056FAF7E70E4A4F
:103DE0008021C90111600D4A0D49D3700422FF32B0
:103DF0000A600C490A600C4A13700C4A13700C4B91
:103E00001B68002B02D00B4A12781A7108BDC046FD
:103E100034800440A40A002080E100E000C0064095
:103E200008C004400CC00440100B0020A50A00206C
:103E3000A00A0020CE0A002038B5041C0B4B1D78C8
:103E4000EDB2002DFAD1201C0121FFF7F3F8291C57
:103E5000201CFFF7BDF80C225443054B054AE158DE
:103E60001C191160044B227A1A7038BDA40A002074
:103E7000F0A10000140B00200F0B002030B500292A
:103E800001D080231843154A1378141C984224D07B
:103E9000134A1268D5041FD57F221340082B04D083
:103EA000142B05D100220F4B01E00F4B00221A60AA
:103EB0004423002900D060237F220240082A06D034
:103EC000142A09D1C02292001343064A03E0C022FB
:103ED00092001343044A1360207030BDB2FDFF1FEF
:103EE0003480044014C004400CC0044010B50F4A94
:103EF0001378984218D00E490968CC0413D5062BC4
:103F000004D0072B05D100210A4B01E00A4B002108
:103F10001960062804D0072805D10849054B01E09F
:103F20000649054B1960107010BDC046B1FDFF1F5A
:103F30003480044008C0044010C004401303000053
:103F400038B50E4B1A680023D10414D50C4C1A282E
:103F500010D80C2343430B4A0B4D9958D3181B7AA6
:103F6000216001212B70FFF765F823682A781A7207
:103F7000012300E02360181C38BDC0463480044093
:103F8000A00A0020F0A10000CE0A00200020704707
:103F9000F8B5214B071C1B68DA043BD51F4B1B6887
:103FA000002B02D01E4A12781A711E4E002334785C
:103FB00027220134A2425B415B421C401A4D2B7800
:103FC000A3421CD1FEF7D8FF402813DC174A13790F
:103FD0005BB2002BF2DA2B780021013327209842C4
:103FE000494149420B401249C95CDBB2C9B2D171A7
:103FF0002B70E3E7FF28E1DD01F046F9DEE70C4B2B
:10400000FFB21F550B4B01221A70084BE4B2AC22D1
:104010003470DA70F8BDC04634800440140B0020C0
:104020000F0B0020180B0020110B002000C00640D1
:10403000A60A0020A40A002038B5041C4518AC428A
:1040400004D02078FFF7A4FF0134F8E738BDFFFF64
:1040500008B5044B1B78002B02D001F015F9F8E7E6
:1040600008BDC046A40A0020064B074A1B781078FA
:10407000DBB2C0B2834201D3273000E00138C01A5E
:104080007047C046180B0020110B0020054B187814
:10409000054BC0B21B78DBB2984200D24030C01A48
:1040A0007047C046100B0020A50A002010B5124B27
:1040B00012491A780B78D2B2DBB29A4219D0013386
:1040C0003F2400209C424041404203400C48DCB267
:1040D000C05C0C700B49C0B2096800290BD09A4231
:1040E00000D24032D31A1A2B05DC074B1B780B7217
:1040F00001E00120404210BD100B0020A50A002065
:10410000CF0A0020A00A0020CE0A00200A4B1A780D
:104110000A4B1B78DBB29A420AD0013300223F21BE
:104120009942524152421340054AD05CC0B201E06C
:10413000012040427047C046100B0020A50A002015
:10414000CF0A0020064B1A78064BD2B21A70064BE3
:104150001B68002B02D0054A12781A727047C046BD
:10416000A50A0020100B0020A00A0020CE0A002083
:1041700030B52E4A1379990624D52D49D4790B7878
:10418000002001333F259D424041404203402948E1
:10419000E4B20078834203D02748C454D8B20870F0
:1041A0002649086800280DD025490978C9B28B42F4
:1041B00001D35B1A01E05B1A4033272B02DD214B50
:1041C0001B780371D178194CC9B24BB2002B1ADAA3
:1041D00023795BB2002B16DA1B4B19481D78037844
:1041E000DBB29D4202D16C23E3700CE0013300246A
:1041F00027259D42644164422340144CE45CDBB2B9
:10420000E4B2D4710370402319420ED011791942DF
:104210000BD00F4B002119700E4B1B688B4202D044
:104220000D49097819722C23D37030BD00C00640A7
:10423000100B0020A50A0020CF0A0020A00A0020B1
:10424000110B0020CE0A0020180B0020A60A002027
:10425000A40A0020140B00200F0B0020F0B50B4F18
:1042600002223B780A4E1A43D2000A4DB41860600D
:1042700028788824002800D0C82409040C43B450AE
:1042800001225040534028703B70F0BD840B002049
:1042900000F8FF1FFC0B0020431E10B5032B0FD8A6
:1042A00072B6084A99008858002807D044685B0015
:1042B0008C50054A01889C5A611A995262B600E0F6
:1042C000002010BD740B0020600C0020431E002055
:1042D000032B09D872B6054A9B009B58002B02D0CD
:1042E00001305B68FAE762B67047C046C80B002031
:1042F00038B572B60123164A9A18013A1278110796
:104300001CD5144A5C01A5589900002D05D113193C
:1043100008305860104BA3500AE001242143C90023
:104320008C58002C0AD15318083058600B4B8B5016
:104330000B4B1A78013A1A7062B608E00133052B6C
:10434000D9D162B6064B00221A7000F0A5FB38BD29
:10435000C8A3000000F8FF1F88004000C80040000C
:10436000F20B0020421E10B5032A30D80223800031
:104370001843174BC0001B1872B6164CA05C0328DC
:1043800009D802F08DFF140216050833022011E04F
:10439000083304200EE01048920014580F4B002CF4
:1043A00001D1115001E09858416099500EE003206E
:1043B00000E00520A0540A1C08325A608822180721
:1043C00000D5C822098809040A431A6062B610BDE4
:1043D00000F8FF1F300B0020C80B0020D80B002076
:1043E000F7B5B5490C780E1CE4B262071DD5B34B86
:1043F0001B78002B16D0B24A1378DBB2002B05D005
:10440000013BDBB21370002B00D100BEAD4A137824
:10441000DBB2002B06D0013BDBB21370002B01D1C5
:1044200000F07AFCA44D04232B700825221C2A409E
:1044300000D154E2A44BA54C1B78DBB21E099A08AC
:10444000002E00D0DDE1D50065192F686A68B80636
:10445000000F01380C2800D9D0E102F02BFF9301A6
:104460009301CF01CF01CF01CF01CF01CF01AC012B
:10447000CF01CF01CF010D0095491368954F5268C8
:1044800095482960954D964900263B607A609BB21D
:1044900001222E602661A66102708B4218D8D021BD
:1044A000C9008B4200D3E5E0812191408B4200D1CD
:1044B000C2E006D8802B00D1A9E0822B00D1ABE06E
:1044C000F5E0884A934200D1C5E0A022D20017E06F
:1044D00085498B4200D152E10DD8882109018B42D8
:1044E00000D18EE090221201934200D0DFE0BA7832
:1044F000724B1A7009E07D4A934200D1CFE07C4AAA
:104500000026934200D115E1D1E0A319196A0906EA
:1045100003D5586A083800F0BFFA0836802EF4D167
:1045200000252E1C734AA858002805D04368019323
:1045300000F0B2FA0198F7E76E496F4B6F4A4851A5
:10454000E850A858002805D04368019300F0A4FA69
:104550000198F7E76A4B6B4AE8507300D0526749FD
:10456000694B4851F05C0238032807D802F098FEE6
:1045700002040204002200E001229A5501360435AB
:10458000042ECFD1614A002313700125161C604B05
:10459000EA18604B9200EB18013B1B781370190767
:1045A00020D500F05BFA6B01002805D0E218083036
:1045B0005060594AE25003E0E050337801333370E1
:1045C00000F04CFA0122AB001343DB00002805D0B9
:1045D000E218083050603E4AE25003E0E050337881
:1045E00001333370AB0002221A43D2000021A150E4
:1045F0000322134393400135E150052DC7D10E1C12
:1046000098E02E4B454C1B78161C237093E0434CCE
:104610002670667002268EE0BB88042B47D83F4C7C
:104620003F4D9B00267066705B191B780226334253
:1046300000D180E022707EE0BA887F231340042BF3
:1046400035DC7E88002E32D135499B005B181A7804
:1046500002218A4329E0BA887F231340042B26DCF9
:104660007E88002E23D12E4A9B009B181A780221A7
:104670000A431AE07A88B9882A4B5C68002C16D065
:104680001888904209D15888884206D1120A032A14
:1046900001D126784FE01E894DE00C33EDE7224B27
:1046A0001A68224B1A60BA78214B1A7042E01C4BF0
:1046B0000F221A7063E0C04680200740FB0B0020E9
:1046C000850B0020FD0B00209020074000F8FF1F05
:1046D000C8004000E80B0020FC0B00201C0B002051
:1046E00081060000020300002120000021220000BA
:1046F00021230000740B0020200B0020C80B002099
:10470000D80B0020600C0020300B0020F20B0020A2
:1047100030C80110C8A3000088004000F30B00203F
:10472000C0200740CCA300008C090020700C0020A2
:104730000C0C0020341CFB889E4200D91E1C371E26
:10474000402F00D94027201C391CFFF787FDE419B2
:10475000F61B03D1351C402F04D010E04025B54294
:1047600000D9351C201C291CFFF778FD6419761B25
:1047700001D1402D03D1754D754B2C601E80012257
:10478000744B3AE0744B1988744B994210D1002352
:10479000D05C7349C8540133072BF9D10B68862BC1
:1047A00002D1704B0F221A700020011CFFF756FD3A
:1047B0006D4B2B6022E0654F3D68002D13D064499E
:1047C0000E88341E402C00D94024281C211CFFF7E1
:1047D00045FD361B5E4AB6B21680002E01D1402C34
:1047E00000D12E193E605C4BA0221988D200914264
:1047F00004D100225A709A785C4B1A700122554BF2
:1048000061E0D200A4186068013E0838F6B22B407F
:1048100036D000F041F95649B0004258554B002AB5
:104820001BD055684550111C985D08316160032804
:104830000BD802F035FD02040608032104E0022132
:1048400002E0052100E0042199558823270700D5BF
:10485000C8231288120413433CE0985D032808D84B
:1048600002F01EFD39390204002200E001229A55AF
:1048700031E02C40624262410324A41A9C552AE094
:1048800062880280002A20D03B4D43804360B30001
:104890005F593A49002F01D1585101E0CD58686065
:1048A000C850374B7600F15A5218F25200F0D6F841
:1048B000002804D00830606021070AD507E0314B9A
:1048C00020601A7801321A7005E02C4201D0264B84
:1048D00000E02D4B23602D4A0823137081E5012051
:1048E00004421ED01B4902230B70294B264C1A7020
:1048F000284B294D1C609C60284C1A61DC609A6131
:104900005D60274B0D241C70264CFF232370174C31
:1049100033702270244A1370244B9F221A7008703F
:1049200013E063B2002B04DA1D4B0D221A708023B2
:10493000337002231C4204D01A4A1178C9B2117094
:10494000337010231C4200D03370F7BD1C0B0020C5
:10495000F00B002094200740E80B002021200000ED
:10496000680C0020850B0020C800400098200740FC
:10497000C80B0020300B0020740B0020200B0020FF
:10498000600C0020F20B00208800400080200740CF
:10499000840B002000F8FF1F340B0020880B002040
:1049A000C0200740882007408C2007408420074013
:1049B00010B500F00BFD00221A4B0021D1509818C1
:1049C00008324160882AF7D1174A80201468C00253
:1049D00020431060180A154AC0B21070180C144A0F
:1049E000C0B21070134A1B0E1370134AFF231370CA
:1049F000124A13481370134A1370012202701248AE
:104A0000017012490A70124A116899430B1C7021F7
:104A10000B4313600F4B802252041A600E4B10227E
:104A20001A7010BD00F8FF1F348004409C2007401E
:104A3000B0200740B420074080200740882007406E
:104A400094200740102007400021074084200740A1
:104A500018E400E000E100E00821074038B572B634
:104A60000B4C2568281C02F057FD0B2802D962B6B2
:104A700000200CE080231B06C3409D43256062B6E6
:104A800048235843034B181800230360436038BD84
:104A9000B4FDFF1F00FAFF1F10B5041C0E4848218B
:104AA000201A02F011FC0B2815D80C4B1B78002B98
:104AB00007D00B4B1B78002B03D0201CFFF718FCF2
:104AC00009E072B68022074B1206C240101C1A6819
:104AD0001043186062B610BD00FAFF1FF20B0020F1
:104AE000FB0B0020B4FDFF1F38B5114C2368002BD1
:104AF0000CD020684288531C8218157A0288934291
:104B000012D3FFF7C9FF002323600EE0094B1B7887
:104B1000002B02D10120404208E00320FFF7BCFB3C
:104B200020600028E5D1F5E74380281C38BDC04649
:104B3000080C0020FB0B002010B50D4C2368002B47
:104B400003D02368002B0ED103E00A4B1B78002B07
:104B500002D10120404209E00320FFF79DFB2060C5
:104B60000028EED1F5E75A889B18187A10BDC04688
:104B7000080C0020FB0B0020054B9888054B1B6898
:104B8000002B03D01A885B88D31AC0187047C04620
:104B9000600C0020080C002010B50A4B1B78002B7D
:104BA0000FD0094C2068002803D0FFF775FF0023C1
:104BB00023600320FFF770FB002802D0FFF76CFF93
:104BC000F7E710BDFB0B0020080C0020F7B5304DB7
:104BD0000123071C0C1C2B70002C56D02D4E306866
:104BE000002827D12C4A01922C4B1B78DBB2002BDA
:104BF00003D12B700120404249E00420FFF766FBFF
:104C0000072808D801232B70FFF728FF214B1860D5
:104C100000280FD128700198214B013801900028FD
:104C200002D01A78002A02D001221A70E2E700F0BE
:104C30002BFBD9E71A4B002231681A704B884020B1
:104C4000C01A0094844200D90090181C009A0830C1
:104C50009B1808184B800190A41A002300988342E7
:104C600004D0F85C019AD0540133F7E7FF184B8861
:104C70003F2B06D940230B800420FFF773FB002352
:104C80003360084B05221A70A6E72C70201CFEBD6D
:104C9000FE0B0020000C002009750000FB0B00201B
:104CA000040C0020FD0B002007B56B46D8710733BC
:104CB000181C0121FFF78AFF0EBDFFFFF8B5124B4C
:104CC0001B78002B1ED0114F114B3C6801261E7023
:104CD000104D002C09D000262E70638804202380FC
:104CE000211CFFF73FFB3E6009E0FFF7B7FE011E06
:104CF00004D004202C70FFF735FB00E02E70044A2E
:104D000000231370F8BDC046FB0B0020000C0020F0
:104D1000FE0B0020FD0B002038B50E4B1D78EDB2C8
:104D2000002D15D10C4C2168002906D04B88042099
:104D30000B80FFF717FB25600AE0FFF78FFE011ECF
:104D400003D00420FFF70EFB02E0044B01221A708F
:104D500038BDC046FE0B0020000C0020FD0B0020DB
:104D600008B50368C9B21B68984708BD08B5036851
:104D7000C9B21B68984708BD08B50368C9B21B686B
:104D8000984708BD08B50368C9B21B68984708BDB5
:104D900008B5044B4808C01802F096FAFEF732FA3C
:104DA00008BDC046C0C62D0010B5064B4808C01847
:104DB000141C02F089FAFEF725FA201CFEF796FA79
:104DC00010BDC046C0C62D0008B5FEF7B7FA08BD35
:104DD00008B5081CFEF7ECFA08BD08B5081CFEF77C
:104DE0005FFB08BD08B5081C111CFEF703FB08BDDE
:104DF00008B5081CFEF79CFB431E9841C0B208BDD5
:104E000008B5081CFEF7BAFB431E9841C0B208BDA6
:104E100008B5FEF733FC08BD08B5FEF76FFC08BD0A
:104E200008B5FEF73BFC08BD08B5FEF709FC08BD58
:104E300008B5FEF77FFC08BD08B5FEF70DFC08BD00
:104E400008B5081CFEF79CFB012008BD08B5081C2E
:104E5000FEF796FB012008BD10B5081C141C111CA0
:104E6000FEF7E2FB201C10BD38B5081C0D1C04F039
:104E700003FF041C211C281CFEF7D6FB201C38BD98
:104E80007047FFFF044B00221A711A73FA21034A7C
:104E9000890099601A607047100C002040A3000040
:104EA000F0B500258DB08C68061C0F1C0195002CF8
:104EB00014D02122381C03A92B1C00F057F9221E04
:104EC000202A00D920223368301C5B6803A9AD1862
:104ED000A41A9847019B1B180193E8E701980DB0AD
:104EE000F0BDFFFF37B50224051C221C01A80549AF
:104EF00004F0E4FD2B68281C5B6801A9221C98477C
:104F00003EBDC04698A30000F0B585B06B460E3399
:104F10008EB2144C0D0C013666436C43A5B2370CAF
:104F2000AE19F619250C2C19360CA5196D080A2690
:104F30006E43891B30311C1C1970013B002D01D0C0
:104F4000291CE5E7211C002A03D01C1C2D224B1E26
:104F50001A70036804A9E24352185B68211C984741
:104F600005B0F0BD3333000010B5041C006804F038
:104F70009BFD201C10BD38B5041C0D1C00680131C0
:104F800004F04AFE002801D021C4012038BD436846
:104F900010B5041C8B4208D2FFF7EDFF002805D0A6
:104FA000A368002B01D122681370012010BDF8B551
:104FB000041C0F1C151E05D10368002B00D01A70AD
:104FC00000230DE0111CFFF7E2FF061C2068002EF5
:104FD00008D1002802D004F067FD2660002363603A
:104FE000A36003E0A560391C04F03EFE201CF8BD60
:104FF00038B50023041C0D1C0360436083600373F9
:10500000994207D0081C04F037FE291C021C201C02
:10501000FFF7CDFF201C38BD38B5051C00680C1CFF
:1050200000280CD06A688B689A4206D3096804F09D
:105030001BFEA2680023AA600AE004F035FD236885
:1050400062682B60A3686A60AB60002323606360C2
:10505000A36038BD08B50B1C884203D009689A6864
:10506000FFF7A5FF08BD10B50023041C03604360D3
:1050700083600373FFF7EEFF201C10BD10B5041E04
:105080008C4201D0FFF7C8FF201C10BD38B5051CAD
:105090000C1E08D0081C04F0EFFD211C021C281C6B
:1050A000FFF785FF00E0A960281C38BD10B500237C
:1050B00086B0041C0360436083600373081C01A96D
:1050C00000F075F9201C01A9FFF7E0FF201C06B0D5
:1050D00010BD70B5041C0E1C8568002A0CD0551933
:1050E000291CFFF754FF002806D02268A368311C52
:1050F000D01804F0B9FDA560201C70BD13B50022C6
:1051000001AB041C19705A70191C0122FFF7E1FF52
:10511000201C16BD10B50B1C041C09689A68FFF70B
:10512000D8FF201C10BD38B5051C0C1E07D0081C6C
:1051300004F0A2FD211C021C281CFFF7CAFF281C3A
:1051400038BD08B58368002B05D1002901D0087847
:1051500008E0012009E00068002901D1007801E0A1
:1051600004F078FD43425841C0B208BD38B50D1C6B
:10517000002A14D0002912D081688B4202D3002368
:105180002B700CE0541EC91A8C4200D90C1C01680B
:10519000221CC918281C04F076FD00232B5538BDAD
:1051A000836810B59A4208D204680968A01804F010
:1051B0007EFD002801D0001B01E00120404210BD0F
:1051C00008B50022FFF7ECFF08BDF8B5041C0E1C63
:1051D0009A4202D9111C1A1C0B1C0021A1602160EB
:1051E00061602173B1688A420FD81D1E8D4200D9BB
:1051F0000D1C3168201C4B1900211F781970336871
:105200009918FFF743FF33685F55201CF8BD00680D
:1052100008B5002801D004F004FC08BD08B5FCF76F
:10522000C5F9FCF7E1FE00F02FF8FAE708B5FFF743
:10523000A3FC08BD08B5FFF757FC08BD08B5FFF78C
:105240007BFC08BD08B5FFF739FD08BD08B5FFF7C1
:10525000A3FC08BD08B5081CFFF726FD08BD08B56E
:10526000081C111CFFF7B2FC08BD7047044B00225C
:105270001A711A73FA21034A890099601A607047FB
:10528000240C0020A8A3000010B5104C2378002B9C
:105290001BD101232370FFF76FFC002801D0FFF71B
:1052A000E4FFFEF7EBF9002801D0FFF7E9FDFEF778
:1052B0002BFC002801D000F053F9FEF7E7FE002890
:1052C00001D000F0EDF90023237010BD340C002054
:1052D0001B4B1C4A19781C4B082901D1002102E004
:1052E0000A2903D138211160132206E00C2901D1CB
:1052F000342100E03C21116012221A60134B1A780D
:10530000134B002A01D0002200E001221A60114B49
:105310001A78114B012A01D880220CE0042A01D806
:10532000842208E0082A01D8852204E0102A01D846
:10533000862200E087221A60084B01221A7070470B
:10534000B8FDFF1F08B003400CB00340360C00202E
:1053500020B00340B9FDFF1F24B00340350C0020EE
:10536000F8B5061C0D1C171C0024301C391C01F05C
:10537000EFFF092901D8303100E03731C9B2295592
:10538000301C391C01F0A0FF061E01D00134ECE7EF
:105390002B1958702B1C5A1BA24206DA1A78295D69
:1053A00019702A550133013CF5E7281CF8BD10B5EA
:1053B0000C1C002802DBFFF7D3FF06E02D230B7047
:1053C00040420131FFF7CCFF201C10BD1FB572B663
:1053D000154B70221A70154A41211170144A0F2181
:1053E000117080221A701A7852B2002AFBDA114B1F
:1053F000186862B6104B984201D80A23584301AC92
:10540000211C0A22FFF7ACFF0023E15C0B4A0029B4
:1054100005D058001018013341800A2BF5D1013313
:105420005B0013701FBDC046000002400700024031
:1054300006000240080002407F96980042FEFF1FCF
:1054400008B50368C9B21B68984708BD08B503686A
:10545000C9B21B68984708BD08B50368C9B21B6884
:10546000984708BD08B50368C9B21B68984708BDCE
:1054700008B5044B4808C01801F026FFFEF7D0F924
:1054800008BDC04660E3160010B5064B4808C018BA
:10549000141C01F019FFFEF7C3F9201CFEF708FAEF
:1054A00010BDC04660E3160008B5FEF729FA08BD36
:1054B00008B5081CFEF75EFA08BD08B5081CFEF723
:1054C0007CFA08BD08B5081C111CFEF775FA08BD6A
:1054D00008B5081CFEF772FA431E9841C0B208BD19
:1054E00008B5081CFEF790FA431E9841C0B208BDEB
:1054F00008B5FEF709FB08BD08B5FEF745FB08BD7A
:1055000008B5FEF711FB08BD08B5FEF7DFFA08BDC8
:1055100008B5FEF755FB08BD08B5FEF7E3FA08BD70
:1055200008B5081CFEF772FA012008BD08B5081C72
:10553000FEF76CFA012008BD10B5081C141C111CE4
:10554000FEF7B8FA201C10BD38B5081C0D1C04F07D
:1055500093FB041C211C281CFEF7ACFA201C38BD50
:105560007047FFFF044B00221A711A73FA21034A95
:10557000890099601A607047380C002028A4000048
:1055800008B50368C9B21B68984708BD08B5036829
:10559000C9B21B68984708BD08B50368C9B21B6843
:1055A000984708BD08B50368C9B21B68984708BD8D
:1055B00008B5044B4808C01801F086FEFEF776FBDC
:1055C00008BDC04660E3160010B5064B4808C01879
:1055D000141C01F079FEFEF769FB201CFEF7CAFBE4
:1055E00010BDC04660E3160008B5FEF7EBFB08BD32
:1055F00008B5081CFEF720FC08BD08B5081CFEF71E
:1056000075FC08BD08B5081C111CFEF737FC08BD69
:1056100008B5081CFEF794FC431E9841C0B208BDB3
:1056200008B5081CFEF7B2FC431E9841C0B208BD85
:1056300008B5FEF72BFD08BD08B5FEF767FD08BDF0
:1056400008B5FEF733FD08BD08B5FEF701FD08BD3E
:1056500008B5FEF777FD08BD08B5FEF705FD08BDE6
:1056600008B5081CFEF794FC012008BD08B5081C0D
:10567000FEF78EFC012008BD10B5081C141C111C7F
:10568000FEF7DAFC201C10BD38B5081C0D1C04F018
:10569000F3FA041C211C281CFEF7CEFC201C38BD8C
:1056A0007047FFFF044B00221A711A73FA21034A54
:1056B000890099601A607047480C002088A4000097
:1056C00010B5021C26480B1C490086B049088142CF
:1056D0001EDD2448814205DD101C191C03F0E2FC8C
:1056E00006B010BD101C191C02AA00F0A5F9032376
:1056F000184001281DD0022811D0002824D00124F0
:1057000002980399049A059B009401F0F5F9E7E7E4
:10571000101C191C114B104A00F0B2FCE0E7049A6F
:10572000059B0298039900F0ABFC80231B06C91867
:10573000D6E7049A059B00900298039901F0DCF9E2
:1057400080231B06C918CBE702980399049A059B8E
:1057500000F096FCC4E7C046000000000000000016
:10576000FB21E93FFFFFEF7F08B500F061F808BDBE
:10577000F0B5474680B48AB0041C0D1C00F098FBBD
:10578000294A0023D3569046061C0F1C01330DD026
:10579000201C291C01F0C0FC002807D0201C291C5B
:1057A000204B1F4A01F056FE002805D1301C391C41
:1057B0000AB004BC9046F0BD012300931B4B049437
:1057C00005950193002308934346029403951C78A2
:1057D000002C0ED1134B124A06920793684601F033
:1057E000CBFC00280FD0089B002B11D1069E079FF1
:1057F000DCE70C490A48021C0B1C02F059FD06901C
:105800000791022CEAD104F023F921230360EAE78F
:1058100004F01EF9089C0460E8E7C046C046C04694
:10582000000000000000000058FEFF1FE0A4000080
:10583000F0B55F464D4644465646F0B4041C50420F
:105840000D1C104359004908C00F88460143894682
:10585000774985B0161C1F1C9B46009401958C4609
:10586000894527D801984100490803900098894646
:10587000009940420843C00F49460143614519D889
:105880006C48C01810434BD099170220084082463C
:105890000198C10F50460843824600984946084384
:1058A00017D1504602285BD011DC002811DB201CE8
:1058B000291C05E0301C391C221C2B1C02F0D6F9D7
:1058C00005B03CBC90469946A246AB46F0BD0328C5
:1058D00035D04046024305D10399002946DB3F49B4
:1058E0003D48EDE7524B98451FD0514B99453AD072
:1058F00048464146431A1B153C2B23DD37493648A1
:105900005346012B40D0022B33D0002BD8D0344A41
:10591000344B03F0C7FB344A344B03F0C3FBCFE7EF
:10592000201C291C01F094F9CAE7C14535D0504626
:10593000012842D03CDD022812D00328D5D12C48C2
:105940002C49BDE75A46002A22DB321C3B1C201C96
:10595000291C02F0ADFC01F023FB01F079F9CFE73F
:1059600021482249ACE7039A002AB8DA22482349A1
:10597000A6E71B4A1B4B03F095FB021C0B1C1A48A5
:105980001A4903F08FFB9BE780242406091997E747
:105990003C33DADA1A481B49B2E75246012A17D0DB
:1059A0000EDD022A11D0032ADDD11748174987E7F7
:1059B00000289AD11248134982E7154815497FE714
:1059C000002AD0D1144815497AE71548154977E7D8
:1059D0001548164974E7C046182D4454FB21F93F79
:1059E000075C143326A6A13C182D4454FB21094022
:1059F000182D4454FB2109C0182D4454FB21F9BF34
:105A00000000000000000000D221337F7CD902C0DA
:105A10000000000000000080182D4454FB21E93FE5
:105A2000D221337F7CD90240182D4454FB21E9BF99
:105A30000000F07F000010C0F0B556464D464446C9
:105A40005F46F0B44B005E08A34B91B0041C0D1CE4
:105A500091468A469E4200DC86E0A04B9E4223DCB3
:105A6000002900DCCEE1291C8C4B8B4A03F01AFB89
:105A70009B4B041C0D1C9E4200D18FE0884A894B31
:105A800003F010FB021C0B1C49460A604B60201CF3
:105A9000291C03F007FB824A824B03F003FB4A46B2
:105AA0009060D160012067E08E4B9E4200DC91E067
:105AB0008D4B9E4267DC8D493315C9180B05F51ACD
:105AC0008B46291C041C03F021FE03F053FE021C2C
:105AD0000B1C201C291C0A920B9303F0E3FA724A58
