:1000000000180020C10000000D390000D9380000A0
:10001000D9380000D9380000D9380000D93800009C
:10002000D9380000D9380000D93800000D39000057
:100030000D390000D93800000D390000C938000022
:100040000D3900000D3900000D3900000D39000098
:100050000D3900000D3900000D3900000D39000088
:10006000753300000D3900000D3900000D39000016
:100070009542000021470000B95E00000D390000E4
:100080000D3900000D3900000D3900000D39000058
:100090000D3900000D3900000D3900000D39000048
:1000A000654900000D3900000D3900000D390000D0
:1000B0000D3900000D3900000D3900000D39000028
:1000C00038B503F027FC454A454B1A60454A464B74
:1000D0001A60464A464B1A60464B0822197811426C
:1000E00002D019780A431A70434B2A221A7000234F
:1000F000424A43499A188A4204D24249C9580433B1
:100100001160F5E7404B41491A1F181D00238A4230
:1001100002D21360031CF6E73D493E4A5958101CB1
:1001200099500433C02BF7D100239A083A49920022
:10013000521803211940C9001568FF248C40A543BB
:100140002C1C80258D40291C214301331160202B5C
:10015000EBD1324B8A221860314B1A70314B24227A
:100160005A70A0221A709A799107FCD59A79D5060F
:10017000FCD498790C212B4A01400829F9D103219C
:100180001171402151719A799106FCD59A795506E1
:10019000FCD52549254A1160224A20211170997900
:1001A0000C220A400C2AFAD1214A224B1A60224A18
:1001B000224B1A60224B00221A60224B07221A603F
:1001C000214A224B1A6062B603F050FD09F0C8FEC6
:1001D00003F0A6FB05F018FBFEE7C046300004F074
:1001E00034800440823F0000388004400100000F4A
:1001F0003C80044002D0074000E0074060FDFF1F44
:10020000A0FEFF1F64BF0000A4FEFF1FA40C00207F
:100210000000000000F9FF1F00E400E008ED00E02E
:100220000050064000400640000001104480044099
:10023000C0000505048004407FBB000014E000E01E
:1002400018E000E010E000E00000202020ED00E0D9
:10025000FFFFFFFFFFFFFFFFFFFFFFFFFFFFFFFFAE
:10026000FFFFFFFFFFFFFFFFFFFFFFFFFFFFFFFF9E
:10027000FFFFFFFFFFFFFFFFFFFFFFFFFFFFFFFF8E
:10028000FFFFFFFFFFFFFFFFFFFFFFFFFFFFFFFF7E
:10029000FFFFFFFFFFFFFFFFFFFFFFFFFFFFFFFF6E
:1002A000FFFFFFFFFFFFFFFFFFFFFFFFFFFFFFFF5E
:1002B000FFFFFFFFFFFFFFFFFFFFFFFFFFFFFFFF4E
:1002C000FFFFFFFFFFFFFFFFFFFFFFFFFFFFFFFF3E
:1002D000FFFFFFFFFFFFFFFFFFFFFFFFFFFFFFFF2E
:1002E000FFFFFFFFFFFFFFFFFFFFFFFFFFFFFFFF1E
:1002F000FFFFFFFFFFFFFFFFFFFFFFFFFFFFFFFF0E
:10030000FFFFFFFFFFFFFFFFFFFFFFFFFFFFFFFFFD
:10031000FFFFFFFFFFFFFFFFFFFFFFFFFFFFFFFFED
:10032000FFFFFFFFFFFFFFFFFFFFFFFFFFFFFFFFDD
:10033000FFFFFFFFFFFFFFFFFFFFFFFFFFFFFFFFCD
:10034000FFFFFFFFFFFFFFFFFFFFFFFFFFFFFFFFBD
:10035000FFFFFFFFFFFFFFFFFFFFFFFFFFFFFFFFAD
:10036000FFFFFFFFFFFFFFFFFFFFFFFFFFFFFFFF9D
:10037000FFFFFFFFFFFFFFFFFFFFFFFFFFFFFFFF8D
:10038000FFFFFFFFFFFFFFFFFFFFFFFFFFFFFFFF7D
:10039000FFFFFFFFFFFFFFFFFFFFFFFFFFFFFFFF6D
:1003A000FFFFFFFFFFFFFFFFFFFFFFFFFFFFFFFF5D
:1003B000FFFFFFFFFFFFFFFFFFFFFFFFFFFFFFFF4D
:1003C000FFFFFFFFFFFFFFFFFFFFFFFFFFFFFFFF3D
:1003D000FFFFFFFFFFFFFFFFFFFFFFFFFFFFFFFF2D
:1003E000FFFFFFFFFFFFFFFFFFFFFFFFFFFFFFFF1D
:1003F000FFFFFFFFFFFFFFFFFFFFFFFFFFFFFFFF0D
:10040000FFFFFFFFFFFFFFFFFFFFFFFFDEF9FFFF23
:1004100010B5064C2378002B07D1054B002B02D0DA
:10042000044800E000BF0123237010BDA0FEFF1FA1
:100430000000000064BF000008B5084B002B03D08B
:100440000748084900E000BF07480368002B03D0B5
:10045000064B002B00D0984708BDC04600000000A6
:1004600064BF0000A4FEFF1FA0FEFF1F00000000ED
:100470000B8810B55840C0B202015040C0B2C20053
:10048000040254401A12231C53400211181C5040FD
:10049000088010BDF0B5194CFE23A370FF236371D3
:1004A000012385B0A371164B0191E0709A796D46D6
:1004B000227101329A7101230E355B42071C2B8099
:1004C00000260136BB1B06339BB2002B05D0A319B7
:1004D0009878291CFFF7CCFFF3E70198291CFFF758
:1004E000C7FFE2782B88A2181372E278381CA41890
:1004F0001B120830637205B0F0BDC04648080020EA
:1005000040FFFF1F70B588B00EAC268800900191A7
:100510000FAC0C992588039110AC69462478CD82E4
:100520000B4D02930D9B4C77281C1E2404930A77D5
:100530000023221C08300B834B838E8209F04AFD76
:100540001821201CE971FFF7A5FF08B070BDC04657
:100550004808002070B58AB00493002305930693E1
:10056000079301ACCB23A3834723A37743230291B3
:10057000E3770D496B46039205330022DA770A1CB4
:1005800008320190131C61CC61C325CC25C341CC3A
:1005900041C3227821201A704C23CB719821FFF798
:1005A00079FF0AB070BDC0464808002008B505F0C4
:1005B0004CF808BD094B82B01B68FA220193084B26
:1005C00001991B689200C91A064B914201D9002279
:1005D00000E001221A7002B07047C046BC0900203A
:1005E0002C090020D802002070B5F54B8EB01B6896
:1005F0000193F44B019A1868111A642900D883E218
:100600001A60F14B18685968EC4BEB4A08F0BEF8D9
:1006100009F0E2FB0222011C06A804F0ECFF06A987
:100620000AA804F0B2FFE94C0AA8211C05F02EF834
:10063000011C02A804F0A9FF0AA804F027FF06A8DD
:1006400004F024FFE24B18685968DC4BDA4A08F0E2
:100650009DF809F0C1FB0222011C06A804F0CBFFA3
:1006600006A90AA804F091FF211C0AA805F00EF8BB
:10067000011C02A8FFF79AFF0AA804F007FF06A8CA
:1006800004F004FFD34B0A22196806A804F0A0FF67
:1006900006A90AA804F079FF211C0AA804F0F6FFB5
:1006A000011C02A8FFF782FF0AA804F0EFFE06A8CB
:1006B00004F0ECFEC84B18685968C84B1A685B68B0
:1006C00008F05EFF09F088FB0222011C06A804F076
:1006D00092FF06A90AA804F058FF211C0AA804F0FA
:1006E000D5FF011C02A8FFF761FF0AA804F0CEFEA7
:1006F00006A804F0CBFEBA4B18685968AF4BAE4A57
:1007000008F044F809F068FB0222011C06A804F076
:1007100072FF06A90AA804F038FF211C0AA804F0F9
:10072000B5FF011C02A8FFF741FF0AA804F0AEFEC6
:1007300006A804F0ABFEAB4B186859689F4B9E4A65
:1007400008F024F809F048FB0222011C06A804F076
:1007500052FF06A90AA804F018FF211C0AA804F0F9
:1007600095FF011C02A8FFF721FF0AA804F08EFEE6
:1007700006A804F08BFE9C4B1868596809F02CFB06
:100780000222011C06A804F036FF06A90AA804F0FC
:10079000FCFE211C0AA804F079FF011C02A8FFF747
:1007A00005FF0AA804F072FE06A804F06FFE8F4B46
:1007B0001868596809F010FB0222011C06A804F011
:1007C0001AFF06A90AA804F0E0FE211C0AA804F0FA
:1007D0005DFF011C02A8FFF7E9FE0AA804F056FE1F
:1007E00006A804F053FE824B1868596809F0F4FA21
:1007F0000222011C06A804F0FEFE06A90AA804F0C5
:10080000C4FE211C0AA804F041FF011C02A8FFF746
:10081000CDFE0AA804F03AFE06A804F037FE754B98
:100820001868596809F0D8FA0222011C06A804F0D9
:10083000E2FE06A90AA804F0A8FE211C0AA804F0FA
:1008400025FF011C02A8FFF7B1FE0AA804F01EFE56
:1008500006A804F01BFE684B0A22196806A804F0DB
:10086000B7FE06A90AA804F090FE211C0AA804F00D
:100870000DFF011C02A8FFF799FE0AA804F006FE6E
:1008800006A804F003FE5D4B0A22196806A804F0CE
:100890009FFE06A90AA804F078FE211C0AA804F00D
:1008A000F5FE011C02A8FFF781FE0AA804F0EEFD88
:1008B00006A804F0EBFD524B0A22196806A804F0C2
:1008C00087FE06A90AA804F060FE211C0AA804F00D
:1008D000DDFE011C02A8FFF769FE0AA804F0D6FDA0
:1008E00006A804F0D3FD474B0A22196806A804F0B5
:1008F0006FFE06A90AA804F048FE211C0AA804F00D
:10090000C5FE011C02A8FFF751FE0AA804F0BEFDB7
:1009100006A804F0BBFD3C4B0A22196806A804F0A7
:1009200057FE06A90AA804F030FE211C0AA804F00C
:10093000ADFE011C02A8FFF739FE0AA804F0A6FDCF
:1009400006A804F0A3FD314B0A22196806A804F09A
:100950003FFE06A90AA804F018FE211C0AA804F00C
:1009600095FE011C02A8FFF721FE0AA804F08EFDE7
:1009700006A804F08BFD264B0A22196806A804F08D
:1009800027FE06A90AA804F000FE211C0AA804F00C
:100990007DFE011C02A8FFF709FE0AA804F076FDFF
:1009A00006A804F073FD1B4B0A22196806A804F080
:1009B0000FFE06A90AA82FE0000000000000244056
:1009C000BC090020440700208000002036B8000049
:1009D00070070020380800207800002088050020DB
:1009E00060070020A805002058070020D808002034
:1009F000E808002038FFFF1FB00500205407002042
:100A000070FFFF1FBCFEFF1F6C0300204405002089
:100A1000300800208405002004F0B7FD211C0AA83E
:100A200004F034FE011C02A8FFF7C0FD0AA804F080
:100A30002DFD06A804F02AFD344B0A22196806A8E9
:100A400004F0C6FD06A90AA804F09FFD211C0AA80F
:100A500004F01CFE011C02A8FFF7A8FD0AA804F080
:100A600015FD06A804F012FD294B0A22197806A8E4
:100A700004F0AEFD06A90AA804F087FD211C0AA80F
:100A800004F004FE011C02A8FFF790FD0AA804F080
:100A9000FDFC06A804F0FAFC1E4B02A81A781E1CE6
:100AA000002A01D01C4900E01C4904F0D5FD0024B7
:100AB000251C04998C420EDA02A8211C04F00AFEBF
:100AC00003783B2B05D002A8211C04F003FE037819
:100AD000ED180134EDE70A22291C0AA804F078FD7C
:100AE0000AA902A8FFF762FD0AA804F0CFFC0C4C8B
:100AF00002A9201C04F096FC201C04F0B5FC002385
:100B000002A8337004F0C2FC0EB070BD5803002080
:100B1000D80200207003002032B8000035B8000071
:100B2000C40B0020C046C04630B5354B87B01C789A
:100B3000002C25D0334B18685968304B2E4A08F0EA
:100B40008FFA09F051F8304B041C186859682B4B88
:100B5000294A08F085FA09F047F82C4B00901868EC
:100B60005968264B244A08F07BFA09F03DF8002228
:100B7000019002920392049200200021231C21E0A4
:100B8000234B1868596809F02FF8224B051C186888
:100B9000596809F029F8204B0090186859681F4BD4
:100BA0001A685B6808F0ECFC144B134A08F058FA1A
:100BB00009F01AF802940190039404940020002193
:100BC000221C2B1CFFF79EFC1549164CCD78201CCF
:100BD00008352A1C023109F0FDF9134B1A78002A56
:100BE00006D000221A701148AAB2211C01F0CBFED7
:100BF00007B030BDC046C0460000000000002440E1
:100C00005007002098050020880000209005002053
:100C10008000002070070020780000208805002058
:100C200048080020F0FFFF1F6DFDFF1F3408002063
:100C3000F7B51E4B1B6801931D4B019A1968501A9A
:100C400096214900884230D91A4F397800292CD092
:100C50001A60194B194C19781A1C194B002919D014
:100C600020681968884215DA1649174DCE78281C75
:100C700008360231321C09F0ADF9144A0023137012
:100C80001348B2B2291C3B7001F07DFE236801338A
:100C900023600AE01B682068984204DB002313707D
:100CA0000C4A23601370FFF73FFFF7BDBC0900201B
:100CB000A40500206DFDFF1FA0050020F803002003
:100CC00078FDFF1F48080020F0FFFF1F6CFDFF1F8D
:100CD000340800207003002008B50420002102F031
:100CE000CBFE0620002102F0C7FE0320002102F007
:100CF000C3FE08BD10B5042086B0012102F078FEC5
:100D00000620012102F074FE0121032002F070FE92
:100D1000FFF7E2FFFA20C00002F08EFF1A2003F076
:100D20000BF80D2003F016FB0321124801F0BEFB67
:100D3000114B124C18685968114B1A685B6807F020
:100D400003FA0B1C90210091A02101910221029134
:100D5000002103910421021C0491201C01F07CFD60
:100D6000201C8A2101F043FE201C01F0C1FD06B0C9
:100D700010BDC0463009002070FDFF1F3408002060
:100D8000F003002008B50420322102F075FE062091
:100D9000002102F071FE0320002102F06DFE08BD6B
:100DA00008B50420002102F067FE06204B2102F066
:100DB00063FE0320002102F05FFE08BD08B5042099
:100DC000002102F059FE0620002102F055FE03200A
:100DD0004B2102F051FE08BD08B50420322102F07B
:100DE0004BFE06204B2102F047FE0320002102F0BB
:100DF00043FE08BD08B50420322102F03DFE062066
:100E00004B2102F039FE03204B2102F035FE08BDD4
:100E100073B50E2002F0E2FC08F01AFF524C021CDF
:100E20000B1C201C01F004FE201C01F019FE3F4B9E
:100E30003D4A08F015F93E4A3E4B08F011F94B4B7C
:100E4000041C0D1C1C605D60494B4A4A1B680193E1
:100E500001991368CE1A484B1868484B864208D946
:100E60001160474A11780122002901D019784A40BF
:100E70001A701B78002B4DD0201C291C2E4A2F4B9A
:100E800006F0D8FC3F4E002801D003233360201C1D
:100E9000291C2B4A2B4B06F0CDFC002809D0201C26
:100EA000291C294A294B06F0B1FC002801D0002357
:100EB0003360201C291C264A264B06F0A7FC00287C
:100EC00009D0201C291C244A244B06F0B3FC00281E
:100ED00001D001233360201C291C214A214B06F03C
:100EE00095FC002801D0022333603368002B01D128
:100EF000FFF756FF3368012B01D1FFF76DFF336811
:100F0000022B01D1FFF73EFF3368032B0BD1FFF714
:100F100071FF08E01C4B1B78002B02D0FFF74EFF3F
:100F200001E0FFF7D9FE73BD000000A0016D6A3F2C
:100F300000000080C2F5F83F000000608FC2104042
:100F4000000000A099990F40000000A0999910405E
:100F5000000000C0CCCC0E400000004033330D40F8
:100F6000000000C0CCCC0C408806002040080020C7
:100F7000BC0900204C07002068FDFF1F7CFDFF1FFF
:100F80006807002030060020D8020020C046C04676
:100F900013B50F4B1B6801930E4B019A1968501A39
:100FA000FA214900884212D90B490C481A6001F015
:100FB0005FFB08F0BFFE0A4C021C0B1C201C01F05A
:100FC00037FD201C01F04CFD064B1860596013BD25
:100FD000BC0900209400002080E6C54730090020AD
:100FE000780700207800002010B503F027FB1C4C88
:100FF000002806DD03F032FBC1B2201C02F022F80B
:10100000F3E7201C01F024FE144B134A08F028F8E3
:10101000144B18605960201C01F03CFE0F4B0E4A27
:1010200008F01EF80B1C1049021C0A604B60221CC1
:10103000002389321370221C90320C4912682078E8
:101040000A60191C0A4B884204D0052A02DD0122DD
:101050001A7000E0197010BD00000000D01263414A
:10106000FC030020800000207007002038080020CA
:1010700068070020C046C04610B5074B0124002277
:101080001C725A72E8212D220220DA71FFF702FA4F
:10109000024B1C7010BDC04648080020A00500206F
:1010A000F0B53B4B3B4D1B682C688BB09C4234DA4F
:1010B000394BA200D758E600FB170893374B07922D
:1010C0009B191868596808F08FFD354B09909B19DA
:1010D0001868596808F088FD324B00909E193068F6
:1010E000716808F081FD079A2F4B01909B5A2F4E93
:1010F00002933388E4B203930122099B0494381CC1
:101100000899FFF7FFF92B68012201332B60284B68
:101110001A7033689B18336038E0264E234D3768C9
:101120009F4225DA244BE4001B191868596808F01F
:101130005BFD224B07901B191868596808F054FD95
:101140001F4B00901C192068616808F04DFD0023BA
:10115000019002932B88FFB203930497079B002012
:1011600000210222FFF7CEF933680133336007E034
:10117000286806F099FF00221249131CFFF7EAF9CC
:101180000B4A012313702B6801332B600BB0F0BDA9
:10119000900000203406002048050020B8050020FB
:1011A00078FFFF1FE0020020F0080020480900201F
:1011B000A005002048070020C0FEFF1F7803002084
:1011C000380600200000104110B5084C206806F0D9
:1011D0006BFF00231A1C0649FFF7BCF9054B0122DF
:1011E0001A7023689B18236010BDC0464809002070
:1011F00000002041A0050020F0B5C64BEDB01A78E4
:10120000002A00D1C2E100241C70C34B01222CA98A
:10121000C2481A7001F081FB211C0790902208A897
:1012200008F0E1FE271C069405940494002403941E
:1012300002970197019C07998C4200DBA6E1019C73
:101240002CABE55CB64C0023E0782370092800D96C
:1012500099E006F001FA0505122922303742527151
:10126000FE2D00D08FE00223E370AE4B0022DA7037
:10127000012252429D701A8085E0802D03D9637847
:10128000013363705FE0A74900232371CD70281CF0
:10129000FFF7EEF80423E37075E0A249281C0D71F6
:1012A000FFF7E6F80323F6E79E49281C4D71FFF788
:1012B000DFF80523EFE79B49281C8D71FFF7D8F86D
:1012C0000623E8E7974E281CF571311CFFF7D0F88C
:1012D000F378002B0FD00723DDE72379914E5A1CBA
:1012E000F31822711D72281C311CFFF7C1F82279F6
:1012F000F3789A4247D10823CDE78A4C8A4AE379AA
:10130000211CD05CFFF7B4F82278854B95420DD0B4
:1013100000221A70FE2D02D00122DA7033E0022181
:10132000D97001235B42E27023802CE00922DA703D
:101330001B79E418257226E07A4E33881B129D42F1
:101340000BD0FE2D01D00123A5E70223E37000237B
:10135000F37001235B42338015E001232370E370B7
:10136000237908A8F3185D72311C902208F032FE30
:10137000F479F78B02943469039474690494B46922
:101380000594B48B0694664B1978012908D1654AF7
:1013900012795A711A89002A00D15A8101321A81B0
:1013A00000249C70A14200D17FE002992D2904D035
:1013B0004C290AD0182978D113E05C4B1C705C4B87
:1013C0001C605C4B1C605C4B16E011AB1B88CB2B8C
:1013D0006BD15A4B0A98996806F04CFA002868D1EC
:1013E00063E011AB1B78002B0AD0544BDB8BBB4264
:1013F0005BD14E4B1C704E4B1C60FFF751FE54E00E
:10140000039808F025FC4E4B18605960049808F0CA
:101410001FFC4C4B186059600A990B9A4A4B05986F
:1014200019605A6006F0E4FD484906F0FDFB08F03B
:1014300081FC474B18605960069806F0D9FD434976
:1014400006F0F2FB08F076FC424B18605960381C3D
:1014500006F0CEFD404906F0E7FB08F06BFC3F4B81
:101460003F4A186059606B4645331B78D907C90F4E
:10147000C9B211603B4A9907C90F11603A4A59072E
:10148000C90F1160394A1907C90F1160D906384AC6
:10149000C90F11609906374AC90F11605906364ABB
:1014A000C90F1160354ADB091360019C01340194B6
:1014B000C0E60B9A3249101C009206F0DBF91C4D75
:1014C000061E05D0194A2C601470FFF77DFEECE76C
:1014D00000981E4906F0CEF9144C002814D0802143
:1014E00026702E600398C90506F0C4F900280DD1B6
:1014F000244C2168042905DCFFF766FE23680133CC
:101500002360D2E72060D0E7207028601E4B0122C4
:101510001A70CAE764FDFF1F6CFDFF1F340800202E
:1015200040FFFF1F9800002032B70000A0050020F8
:10153000F803002034060020480700204808002057
:1015400060070020A8050020E808002000002041D6
:1015500038FFFF1F5807002000007A44D8080020F9
:10156000840500203008002070FFFF1FBCFEFF1F15
:1015700058030020440500206C030020B005002023
:1015800000001041B4050020700300206DB0F0BDD4
:1015900070B50B4C061C206806F086FD051C301C3F
:1015A00006F026FDFE21021C8905281C0023FEF7FB
:1015B000D1FF044B01221A7023689B18236070BD71
:1015C00048090020A005002013B50F4B1B680193AC
:1015D000019A0E4B9A4210D90D4C0A4B084A2068CA
:1015E000616806F00DF9002807D00A4801F038FAC2
:1015F000206061600120FFF7CBFF13BDC046C046ED
:101600000000000000000000BC09002010270000BE
:10161000880500207807002070B50B4C061C206858
:1016200006F042FD051C301C06F0E2FC8021021C85
:10163000C905281C0023FEF78DFF044B01221A70F8
:1016400023689B18236070BD48090020A005002076
:1016500070B50B4C061C206806F026FD051C301CDE
:1016600006F0C6FC0749021C0023281CFEF772FF87
:10167000054B01221A7023689B18236070BDC04679
:101680004809002000004040A005002070B50B4C28
:10169000061C206806F008FD051C301C06F0A8FC9E
:1016A0008121021CC905281C0023FEF753FF044BAF
:1016B00001221A7023689B18236070BD480900201E
:1016C000A005002070B50B4C061C206806F0ECFC51
:1016D000051C301C06F08CFC0749021C0023281C4A
:1016E000FEF738FF054B01221A7023689B18236010
:1016F00070BDC046480900200000A040A0050020A1
:1017000070B50B4C061C206806F0CEFC051C301C86
:1017100006F06EFC0749021C0023281CFEF71AFF86
:10172000054B01221A7023689B18236070BDC046C8
:10173000480900200000C040A005002070B5094CF9
:101740000D1C061C206806F0AFFC321C2B1C064941
:10175000FEF700FF054B01221A7023689B182360D7
:1017600070BDC046480900200000E040A0050020F0
:1017700010B5084C206806F097FC002382211A1C43
:10178000C905FEF7E7FE044B01221A7023689B1877
:10179000236010BD48090020A0050020FFFFFFFFC7
:1017A000F0B5E44CE44B002591B0201CE3491D70DA
:1017B00003F07AFFA84207D0E14B281C1B68012BDD
:1017C00000D00120FFF7E4FE201CDE4903F06CFF8F
:1017D000002807D0DC4B00201B68012B00D0012023
:1017E000FFF736FF201CD94903F05EFF002807D021
:1017F000D74B00201B68012B00D00120FFF70CFF06
:10180000201CD44903F050FF002802D00120FFF72C
:101810001FFF201CD04903F047FF002801D0FFF72D
:10182000A7FF201CCD4903F03FFF002807D0CC4B79
:1018300001201B68002B00D00020FFF743FF201C75
:10184000C84903F031FF002807D0C74B00201B68B0
:10185000012B00D00120FFF753FF201CC34903F0E8
:1018600023FF002807D0C24B00201B68012B00D0AB
:101870000120FFF70BFF0CA8211C0022012303F01D
:1018800093FF0CA8BB4903F00FFF051C0CA803F045
:10189000FDFD002D0CD00CA8211C022203F0A6FF98
:1018A0000CA803F0AAFFB44B18600CA803F0EEFDDF
:1018B0000CA8211C0022032303F076FF0CA8AF49DB
:1018C00003F0F2FE051C0CA803F0E0FD002D00D192
:1018D00069E1211C04A803F058FE04220CA8211C75
:1018E00003F084FF0CA9201C03F05AFE0CA803F09F
:1018F000CDFDA34D08A8291C03F00CFE08A9201C4F
:1019000003F020FF0022211C031C0CA803F04CFF55
:101910000CA803F072FF9B4B18600CA803F0B6FDF7
:1019200008A803F0B3FD291C08A803F0F3FD08A9DB
:10193000201C03F007FF211C421C0CA803F056FFDB
:101940000CA9201C03F02CFE0CA803F09FFD08A896
:1019500003F09CFD00258B4B764C1A681E1C9542AB
:1019600000DBA6E0884E08A8311C03F0D3FD201C44
:1019700008A903F0E7FE0022031C211C0CA803F0B9
:1019800013FF0CA803F039FF071C0CA803F07EFD21
:1019900008A803F07BFD311C08A803F0BBFD201C48
:1019A00008A903F0CFFE211C421C0CA803F01EFF67
:1019B0000CA9201C03F0F4FD0CA803F067FD08A897
:1019C00003F064FD311C08A803F0A4FD201C08A945
:1019D00003F0B8FE0022031C211C0CA803F0E4FE57
:1019E0000CA803F00AFF00900CA803F04FFD08A814
:1019F00003F04CFD311C08A803F08CFD201C08A945
:101A000003F0A0FE211C421C0CA803F0EFFE0CA961
:101A1000201C03F0C5FD0CA803F038FD08A803F056
:101A200035FD574E08A8311C03F074FD201C08A991
:101A300003F088FE0022031C211C0CA803F0B4FE56
:101A40000CA803F0DAFE01900CA803F01FFD08A813
:101A500003F01CFD311C08A803F05CFD201C08A944
:101A600003F070FE211C421C0CA803F0BFFE0CA961
:101A7000201C03F095FD0CA803F008FD08A803F056
:101A800005FD381C08F0E4F8404EEC0036193060D3
:101A90007160009808F0DCF83D4E3E4B361930601E
:101AA000716001981C1908F0D3F80135206061605D
:101AB00051E7334908A803F02DFD201C08A903F0C5
:101AC00041FE211C031C00220CA803F06DFE0CA893
:101AD00003F093FE00900CA803F0D8FC08A803F0D4
:101AE000D5FC0024251C06998C421CDA04A8211C74
:101AF00003F0F0FD03783B2B13D021490CA803F031
:101B000009FD04A80CA903F048FE071C0CA803F06B
:101B1000BDFCBC4205DA04A8211C03F0DBFD037800
:101B2000ED180134DFE7009A1B4BAA4236D00022A1
:101B3000326034E05C0300207003002038B80000FD
:101B400070FFFF1F3FB800006C03002052B8000078
:101B5000BCFEFF1F3AB8000065B800003DB80000A9
:101B60008405002041B800003008002045B800007E
:101B70004405002049B80000540700204BB800007D
:101B800036B80000E00800204FB80000C0FEFF1F7C
:101B9000780300203806002040070020012204A816
:101BA0001A7003F073FCDC4C0CA8211C00220223E9
:101BB00003F0FAFD0CA8D94903F076FD051C0CA82A
:101BC00003F064FC002D00D1C1E1211C04A803F046
:101BD000DCFC03220CA8211C03F008FE0CA9201C2D
:101BE00003F0DEFC0CA803F051FCCD4D08A8291C25
:101BF00003F090FC08A9201C03F0A4FD0022211C86
:101C0000031C0CA803F0D0FD0CA803F0F6FDC54B97
:101C100018600CA803F03AFC08A803F037FC291C54
:101C200008A803F077FC08A9201C03F08BFD211CF9
:101C3000421C0CA803F0DAFD0CA9201C03F0B0FC38
:101C40000CA803F023FC08A803F020FC0025B54BEA
:101C5000B14C1A681E1C954200DB12E1B24E08A876
:101C6000311C03F057FC201C08A903F06BFD002277
:101C7000031C211C0CA803F097FD0CA803F0BDFD6C
:101C800000900CA803F002FC08A803F0FFFB311C35
:101C900008A803F03FFC201C08A903F053FD211CF9
:101CA000421C0CA803F0A2FD0CA9201C03F078FC38
:101CB0000CA803F0EBFB08A803F0E8FB311C08A814
:101CC00003F028FC201C08A903F03CFD0022031CA3
:101CD000211C0CA803F068FD0CA803F08EFD0190F8
:101CE0000CA803F0D3FB08A803F0D0FB311C08A814
:101CF00003F010FC201C08A903F024FD211C421C49
:101D00000CA803F073FD0CA9201C03F049FC0CA8DF
:101D100003F0BCFB08A803F0B9FB311C08A803F0D2
:101D2000F9FB201C08A903F00DFD0022031C211C57
:101D30000CA803F039FD0CA803F05FFD02900CA87D
:101D400003F0A4FB08A803F0A1FB311C08A803F0D2
:101D5000E1FB201C08A903F0F5FC211C421C0CA887
:101D600003F044FD0CA9201C03F01AFC0CA803F09E
:101D70008DFB08A803F08AFB311C08A803F0CAFBFE
:101D8000201C08A903F0DEFC0022031C211C0CA867
:101D900003F00AFD0CA803F030FD03900CA803F03B
:101DA00075FB08A803F072FB311C08A803F0B2FB16
:101DB000201C08A903F0C6FC211C421C0CA803F03F
:101DC00015FD0CA9201C03F0EBFB0CA803F05EFB37
:101DD00008A803F05BFB524F08A8391C03F09AFBDC
:101DE000201C08A903F0AEFC0022031C211C0CA837
:101DF00003F0DAFC0CA803F000FD061C0CA803F0AD
:101E000045FB08A803F042FB391C08A803F082FB3D
:101E1000201C08A903F096FC211C421C0CA803F00E
:101E2000E5FC0CA9201C03F0BBFB0CA803F02EFB67
:101E300008A803F02BFB009807F00AFF354B344A43
:101E400007F00EF9394FEC003F19386079600198BE
:101E500007F0FEFE2F4B2E4A07F002F9344F354BA8
:101E60003F193860796002981C1907F0F1FE324A78
:101E7000206061600399AB009950304A01359E5053
:101E8000E5E6274908A803F045FB201C08A903F054
:101E900059FC211C031C00220CA803F085FC0CA893
:101EA00003F0ABFC00900CA803F0F0FA08A803F0D4
:101EB000EDFA0024251C069A94421CDA04A8211C81
:101EC00003F008FC03783B2B13D015490CA803F052
:101ED00021FB04A80CA903F060FC071C0CA803F06C
:101EE000D5FABC4205DA04A8211C03F0F3FB037801
:101EF000ED180134DFE70099114BA94202D11A789D
:101F0000002A1FD1002232601A701DE0C046C04670
:101F100000000000000024405C03002051B80000D5
:101F200036B80000900000204FB80000B80500202F
:101F300078FFFF1FE002002048050020F008002085
:101F400040070020FFF798F804A803F09FFAC84C58
:101F50000CA8211C0022012303F026FC0CA8C54973
:101F600003F0A2FB051C0CA803F090FA002D5ED034
:101F700002220CA8211C03F039FC0CA9201C03F040
:101F80000FFB0CA803F082FABB4D08A8291C03F034
:101F9000C1FA08A9201C03F0D5FB0022031C211C58
:101FA0000CA803F001FC0CA803F027FC061C0CA8ED
:101FB00003F06CFA08A803F069FA291C08A803F0DA
:101FC000A9FA08A9201C03F0BDFB211C421C0CA887
:101FD00003F00CFC0CA9201C03F0E2FA0CA803F09F
:101FE00055FA08A803F052FA291C08A803F092FA3F
:101FF00008A9201C03F0A6FB211C031C00220CA82E
:1020000003F0D2FB0CA803F0F8FB051C0CA803F0AE
:102010003DFA08A803F03AFA684205F0E9FF051C0A
:10202000301C05F0E5FF011C281CFFF787FB0CA8FE
:10203000211C0022032303F0B7FB0CA88F4903F0F7
:1020400033FB051C0CA803F021FA002D00D1F4E0AD
:10205000211C04A803F099FA0422211C0CA803F007
:10206000C5FB0CA9201C03F09BFA0CA803F00EFA88
:10207000814D08A8291C03F04DFA201C08A903F083
:1020800061FB0022031C211C0CA803F08DFB0CA893
:1020900003F0B3FB061C0CA803F0F8F908A803F042
:1020A000F5F9291C08A803F035FA201C08A903F04B
:1020B00049FB211C421C0CA803F098FB0CA9201C16
:1020C00003F06EFA0CA803F0E1F908A803F0DEF9BA
:1020D000291C08A803F01EFA201C08A903F032FBF3
:1020E0000022031C211C0CA803F05EFB0CA803F0CB
:1020F00084FB00900CA803F0C9F908A803F0C6F906
:10210000291C08A803F006FA201C08A903F01AFBF2
:10211000211C421C0CA803F069FB0CA9201C03F035
:102120003FFA0CA803F0B2F908A803F0AFF9291C94
:1021300008A803F0EFF9201C08A903F003FB002214
:10214000031C211C0CA803F02FFB0CA803F055FB6B
:1021500001900CA803F09AF908A803F097F9291C3C
:1021600008A803F0D7F9201C08A903F0EBFA211CFA
:10217000421C0CA803F03AFB0CA9201C03F010FA37
:102180000CA803F083F908A803F080F9291C08A81B
:1021900003F0C0F9201C08A903F0D4FA211C031C89
:1021A00000220CA803F000FB0CA803F026FB029011
:1021B0000CA803F06BF908A803F068F90024251CAB
:1021C000069A94421CDA04A8211C03F083FA0378CF
:1021D0003B2B13D028490CA803F09CF904A80CA9A8
:1021E00003F0DBFA071C0CA803F050F9BC4205DA37
:1021F00004A8211C03F06EFA0378ED180134DFE720
:10220000029BAB4216D1301C07F022FD1C4B18601C
:102210005960009807F01CFD1A4B1860596001982E
:1022200007F016FD184B194A186059600123137006
:10223000174A137004A803F029F90D4C0022022359
:102240000CA8211C03F0B0FA12490CA803F02CFAD8
:10225000051C0CA803F01AF9201C002D02D00B4B12
:1022600000221A700C4903F0A3F911B0F0BDC0466A
:102270005C03002056B8000036B8000054B80000D7
:1022800098050020880000209005002050070020BD
:102290007003002058B8000050B80000C046C04687
:1022A00008B501F085FF00280BDD01F091FFC1B2F8
:1022B0000A2902D1FFF774FAF3E7024803F0DAF9CA
:1022C000EFE708BD5C03002013B5194C201C00F09B
:1022D00042FA002818D0201C00F053FB852808D1B2
:1022E000144B01221A70144B1B680193019A134B73
:1022F0001A60201C00F045FB832805D1104B0122F9
:10230000201C1A7000F0F4FAFEF76EFEFEF740FE95
:10231000FEF78EFCFEF768F9FEF76EFFFFF7C0FFD1
:10232000FEF776FDFEF746F9FFF74EF913BDC046FE
:102330003408002064FDFF1FBC0900202C09002088
:102340006DFDFF1F70B5164800F0BAFB154800F090
:102350003BF8154E3221301C00F05BFB134C144D42
:10236000221C291C301C07F0C3FD124E0A21301C10
:1023700000F04FFB221C301C291C07F0B9FD0E4D4C
:102380000E49281C03F0C6F8281C221C0C4907F033
:10239000AFFD162115220B4800F09EF970BDC04616
:1023A000FC030020300900208806002060FDFF1F8C
:1023B000F3290000780700205C03002050B80000DB
:1023C0008D54000034080020704710B5C28A848AFA
:1023D000891A4C43031C1022995E0E22805EE4137E
:1023E0006118C00205F09AF9201810BD70B5094CAB
:1023F0000E1C201C7721151C01F035F9311C201C06
:1024000000F0D2FE291C201C00F0CEFE201C01F0A2
:102410002FF970BDA009002038B50F4C0D1C201CF1
:10242000772101F020F9291C201C00F0BDFE201CA2
:1024300001F01EF9201C772101F015F97721012206
:10244000201C01F009F9201C00F0DCFE051C201CFA
:1024500001F00EF9E8B238BDA009002070B5124CA9
:102460000D1C201C772101F0FEF8291C201C00F017
:102470009BFE201C01F0FCF8201C772101F0F3F8F2
:1024800077210222201C01F0E7F8201C00F0BAFEA0
:1024900086B2201C00F0B6FE3502ADB20543201C0A
:1024A00001F0E6F8A8B270BDA009002010B50B1C21
:1024B000041C032900D903232370224800F016FFCF
:1024C000201CD021FFF7A8FF0023552837D1AA21CF
:1024D000201CFFF7C3FFAC216080201CFFF7BEFF6C
:1024E000AE21A080201CFFF7B9FFB021E080201CA6
:1024F000FFF7B4FFB2216082201CFFF7AFFFB421C9
:10250000A082201CFFF7AAFFB621E082201CFFF763
:10251000A5FFB8212081201CFFF7A0FFBA21608110
:10252000201CFFF79BFFBC21A081201CFFF796FF1A
:10253000BE21E081201CFFF791FF01232082181C9F
:1025400010BDC046A009002010B52E22F421041CA5
:10255000FFF74CFF052001F06FFB201CF621FFF771
:102560007DFF10BD38B50278041C92013432D2B21E
:10257000F421FFF73BFF23780520002B06D008202D
:10258000012B03D00E20022B00D01A2001F054FBA7
:10259000201CF621FFF762FFF8210502201CFFF73F
:1025A0003BFF237805430820C31A281CD84038BDB8
:1025B000F8B5041CFFF7C8FF061C201CFFF7D2FF6C
:1025C000311C051C201CFFF700FF23490627E65F8E
:1025D0004318181C58430827E15F00135E4341432A
:1025E0007613091471180231802636028910891970
:1025F000668A227871430227E65FC90BB600B446AB
:102600000A26A75F78430427E45FC0126343DB1206
:10261000C318634493400233D817800FC3180F4880
:102620009B10ED1AD0406843002803DB400005F002
:1026300027F802E005F024F8400003125B43084A43
:1026400008495343084A1B14424312149B185B1851
:102650001B11C018F8BDC04660F0FFFF50C300005A
:10266000DE0B0000CF0E000043E3FFFFFFFFFFFF84
:1026700010B50C1CFFF79CFF05F0BAFC211C05F0FF
:10268000D3FA07F057FB094B074A03F035FE021C4B
:102690000B1C0748074906F073FF074A074B06F073
:1026A000DFFC07F099FB10BD00000020C05BC83FB5
:1026B000000000000000F03F0000000040A5E540E1
:1026C000044B98711A7852B2002AFBDA014B9879C0
:1026D000C0B270470060074010B58123427083701C
:1026E000041C0170081C012101F082F920780121ED
:1026F00001F04CF96078002101F07AF900F0FCFC5F
:10270000201C10BD70B50E1C041C00210078151C87
:1027100001F03CF980203043FFF7D2FF281CFFF77F
:10272000CFFF2078012101F031F970BD38B5041CCC
:102730000D1C0078002101F029F97F202840FFF7C7
:10274000BFFF0020FFF7BCFF0121051C207801F02E
:102750001DF9281C38BD38B5041C407801F036F945
:10276000051E07D0A378832B04D1201C1221082238
:10277000FFF7C8FF281C38BD10B58378041C8B42B6
:102780003CD0081C8038052838D804F065FF252D7A
:1027900037033714201C0C210022FFF7B3FFE27827
:1027A000201C0921FFF7AEFF201C01218322FFF727
:1027B000A9FF83231EE0201C09210022FFF7A2FFAE
:1027C000201C0C212322FFF79DFF201C01218522C4
:1027D000FFF798FF85230DE0201C01218022FFF7E1
:1027E00091FF8023A37009E0201C01218122FFF7C3
:1027F00089FF8123A370012001F01EFA10BDFFFFA5
:1028000038B5191C041C101C104B0F4A06F028FC8C
:102810000F4A104B05F0BAFF05F07AF8020C051CC0
:10282000D2B2201C0621FFF76DFF2A0A201CD2B26B
:102830000721FFF767FFEAB2201C0821FFF762FFBC
:1028400038BDC046C046C0460000000080842E410E
:102850000000000080844E40F0B585B000920193E6
:102860000AAB1E780BAB1D780CAB1F780DAB1B7839
:10287000041C02930EAB1B7880210393FFF77CFFAF
:10288000201C01218022FFF73DFF029A3E43324384
:10289000201C1D21FFF736FF039A201C2A431E210E
:1028A000FFF730FF0422201C2621FFF72BFF032215
:1028B000602D00D10522201C3121FFF723FF0A22C1
:1028C000602D00D10C22201C3721FFF71BFF201C9C
:1028D00022213C22FFF716FF201C13213C22FFF788
:1028E00011FF009A019B201CFFF78AFF05B0F0BD85
:1028F00010B54021041C0022FFF704FF201C0F210B
:102900000022FFF7FFFE201C00220D21FFF7FAFE38
:10291000201C8521FFF730FF10BDF8B50F1C1221D8
:10292000041CFFF703FF4022051C1221201CFFF7A7
:10293000E9FE2022201C154204D01221FFF7E2FEFE
:1029400000201DE01021FFF7F1FE1321051C201CC3
:10295000FFF7ECFE2A1C061C0D21201CFFF7D2FEFF
:102960003D1CEB1B201CB34205DA0021FFF7DEFE05
:1029700028700135F5E71221FF22FFF7C3FE301C56
:10298000F8BD80787047F8B50F1C8121041C161C17
:10299000FFF7F2FE40210A1C201CFFF7B3FE201CAB
:1029A0000E210022FFF7AEFE201C0D210022FFF7B2
:1029B000A9FEF2B2201C2221FFF7A4FE20780021FC
:1029C00000F0E4FF8020FFF77BFE3D1CEB1BB342D1
:1029D00004DA2878FFF774FE0135F7E72078012143
:1029E00000F0D4FF201C8321FFF7C6FEF8BDC170A4
:1029F0007047704710B5002341788370C37003702F
:102A0000DAB28A4204D2C418A03422700133F7E744
:102A100010BD10B5041C002903D0132902DD1321B9
:102A200000E00121201C6170FFF7E4FF201C10BDB5
:102A300010B5C4780134E1B2E4000419C170226019
:102A400063604278914201D30023C370837893423C
:102A500001D2013383700023037010BDFFFFFFFF1D
:102A6000F7B583780193002B1CD0071C0026114D6D
:102A70000F4C019B08379E420AD0201C291C3A6843
:102A80007B6805F061FB0136041C0D1CF6B2F0E713
:102A9000301C07F0DDF8021C0B1C201C291C05F063
:102AA00075FE01E00448054903B0F0BDC046C046CC
:102AB0000000000000000000000000000000F87F9F
:102AC0000023421D0370437083808360037303827D
:102AD0004361037683830362D37723320385C36222
:102AE0001374537413721032C36310321370537023
:102AF000C364103213705370036610321370537036
:102B0000036713745374021DD367843213741370F4
:102B100053709360537493611032137453749522FD
:102B20000221520081542C22FF32835496225200FB
:102B300083542E22FF328354021CFC32536393636E
:102B4000D363136453649364523A137070470B1C3D
:102B5000413B081C052B01D8373805E00B1C613BB5
:102B60003038052B00D82738704738B505782D3D0B
:102B70006B425D41EDB24419201C07F0C0F964239B
:102B8000584323781A1C303A092A01D80134F8E74F
:102B90002E2B0BD16378303B092B07D80A225343E5
:102BA000C018A378303B092B00D8C018002D00D0E6
:102BB000404238BDF8B50D1C041C07F0A0F9642193
:102BC000071C04F0A1FD134E381C4E43642104F091
:102BD00057FD288023781A1C303A092A01D801347D
:102BE000F8E72E2B0BD10B4801342778303F092F03
:102BF00005D80A2104F044FD4743F619F4E70520FF
:102C000046430321701C04F03BFD002368602B72D7
:102C1000F8BDC0468096980037B5041C0925211CD4
:102C20002A1C1C31043007F0D5F9201C211C2A1C59
:102C30002831103007F0CEF9044B1B680193019B3B
:102C4000636301236370237037BDC046BC09002055
:102C500038B500234370041C808805F0C9F9051CB1
:102C6000A06805F021FA0A4904F0DEFF011C281CC7
:102C700004F06EFE07F05EF8021C207B0B1C00289F
:102C800002D0802000060B18101C191C38BDC0464D
:102C9000286B6E4E38B500234370041C008A05F083
:102CA000A7F9051C606905F0FFF90A4904F0BCFFAB
:102CB000011C281C04F04CFE07F03CF8021C207E8E
:102CC0000B1C002802D0802000060B18101C191CB9
:102CD00038BDC046286B6E4E836882B04360054B9A
:102CE0001B680193019BC36001234370037002B012
:102CF0007047C046BC090020836882B04360054B22
:102D00001B680193019BC36001234370037002B0F1
:102D10007047C046BC09002010B5041C081CFFF712
:102D200024FFA06010BD10B5041C081C07F0E7F8D4
:102D3000A06010BDC36882B08360054B1B6801931F
:102D4000019B436001234370037002B07047C0468B
:102D5000BC09002010B5041C081CFFF706FFE0604A
:102D600010BDFFFFC36882B08360054B1B680193F1
:102D7000019B436001234370037002B07047C0465B
:102D8000BC09002010B5041C081C07F0B8F8E0606E
:102D900010BDFFFF13B5041C211C813007F0F0F9B2
:102DA000054B1B680193019A231CFC339A60FF3486
:102DB0000123A372637213BDBC09002008B58122F0
:102DC00007F0EDF908BDFFFFF7B5031CA9331B7829
:102DD000051C041C0193FC35002B6AD0031CAA338C
:102DE0001978FFF7B4FE231CAB33061C1978201C9E
:102DF000FFF7ADFE231C3601A83336181B78F6B258
:102E0000B34250D1AB6C2E260133AB64FF36A35DC9
:102E1000002B02D02B6C01332B6495235B00E35C09
:102E2000002B16D0012B2AD1201C3830FFF754FF7D
:102E3000201C4830FFF760FFA35D002B1FD0201C33
:102E4000FFF7EAFE201C5830FFF774FF201C6830A3
:102E500013E0201C4830FFF74FFFA35D002B06D086
:102E6000201CFFF7D9FE201C7830FFF763FF201CE1
:102E70008830FFF777FF201C9830FFF75BFFAC6BC3
:102E8000002C00D1D3E0AB6B261CFC36FC33196957
:102E9000306907F06BF9002800D0C8E0201CFFF76C
:102EA00079FFB469ECE76B6C002101336B6401912D
:102EB000BDE02C23FF33C25C002A34D1061CAA36A5
:102EC000301C5C4907F052F9002805D0301C5A49E3
:102ED00007F04CF9002804D1012295239340E254D5
:102EE00010E0301C554907F041F995277F00002874
:102EF00006D0301C524907F039F90223002800D1CE
:102F00000023E3556B6BAB63AC6B002C00D18EE000
:102F1000FC342069311C07F029F9002800DB82E02D
:102F2000A469AC63F0E795235B00C05C02285FD026
:102F3000211CAA310B78002B5AD040010243501EAD
:102F4000282855D804F088FB151E22282E40484D0D
:102F50005054545454545454545454545454545435
:102F60005454545454545454151A1E22282E35388F
:102F70003B00201C4830FFF7CFFE39E0413B5A426E
:102F8000534125E0081C211C1C3108E0533B5A42E8
:102F90005341621DD3772BE0081C211C2831FFF719
:102FA00009FE25E0573B5A425341221C3032137030
:102FB0001EE0201C583019E0201C683016E0201C50
:102FC0003830FFF7B0FE13E030229A429B415B425B
:102FD0002E22FF32A3540BE0201C8830FFF7D2FED4
:102FE00006E0201C983001E0201C7830FFF7B2FE8C
:102FF000AE6B002E1BD0AB6B371CFC37FC33196952
:10300000386907F0B3F8002811D12C21FF317A6913
:10301000635C9A420BDC04D1211C301CAA31FFF7FF
:10302000CDFEBE69E5E7002801D00023AB6301981F
:10303000FEBDC0465BB8000061B8000067B8000084
:103040006DB80000031CFC33DA6B70B50132DA6333
:10305000061C9623041C0D1C5B00A936242926D0CF
:1030600004D80A290BD00D2932D108E02A2906D02C
:103070002C292DD1021CA832117869401170E35C13
:103080000020802B05D2E318A8339870201CFFF78E
:103090009BFE2C23FF33E25C2A3D0132E25496234F
:1030A0005B000022E2546B426B41337023E000204E
:1030B000E0542C23FF33E054231CA83318709523CD
:1030C0005B000222E2542E23FF333070E05412E002
:1030D000E35C7E2B06D8591C9622E3185200A833D5
:1030E000A1549D703078002804D1A83423785D4025
:1030F000257000E0002070BD154B80221968D203B6
:103100000A431A60134B5022DA7000229A701B781F
:10311000114B1B78D90703D4902189000F4A02E094
:1031200080210F4A8900116080229200990701D402
:103130000C4900E00C490A605A0703D4902292001F
:103140000A4B02E080220A4B92001A607047C04688
:103150003480044000600740D50B002018B00440C4
:1031600008C004401CB004400CC0044014B004402B
:1031700004C00440044BD878044BC0B21A68904293
:1031800000D018607047C0460060064080FDFF1FF9
:1031900008B5FFF7EFFF02231842FAD0014AD370B7
:1031A00008BDC0460060064010B50C4B041C1B78DF
:1031B000002B04D10A4A181C1278002A0CD0094AA4
:1031C0001378202B03D901232371002004E0581C1D
:1031D0001070054A0120D15410BDC046B20900202C
:1031E00075090020B3090020540900207047FFFF33
:1031F000024B1878024B1B78C01A7047B1090020A7
:10320000B0090020064A074913780978994204D981
:10321000591C1170044AD05C01E001204042704703
:10322000B0090020B109002076090020054B064AAC
:103230001B7812789A4202D9044AD05C01E001203E
:1032400040427047B0090020B109002076090020F3
:10325000F8B50E4B071C1878141C002803D10C4B32
:103260001B78002B10D00B4E212335785B1B9C4222
:1032700002D901223A711C1C0748221C40192D1941
:1032800006F0A8FE3570201CF8BDC046B20900202B
:1032900075090020B30900205409002000230371A0
:1032A0000373034BFA229200083382600360704775
:1032B00098B80000094B1B685A060ED5084A094BFE
:1032C000914201D81F2205E0074A914201D81222FB
:1032D00000E002225A7002229A7170473480044042
:1032E0007F1A0600006006403F420F00174A002385
:1032F00010B51370164A402411682143154C116013
:10330000A370154B1B78122B03D199229200134BFB
:1033100004E0112B03D19922114B92001A60114B3A
:103320001B78132B03D1992292000F4B04E0102B32
:1033300003D199220D4B92001A600D49FFF7BAFF95
:10334000202363718023A37010BDC046750900203F
:1033500034800440006006407DFDFF1F0CA0044047
:1033600004A0044084FDFF1F08A0044000A0044006
:10337000A086010038B53C4C1023E578EDB21D4223
:1033800003D140222A4004D127E0E3706B06F8D431
:1033900068E004231D40354B17D000221A70344BCF
:1033A000344D1B682A70934200D098472A78324BDC
:1033B000002A02D1012129701A70D022A2701B7834
:1033C000012223712D4B1A704AE001221A702C4BF6
:1033D0001D70C023A370237942E0A3796021DBB282
:1033E000194060290CD120218B431F498B71254B3B
:1033F0001B68002B04D024490A70214A1078984792
:10340000A1781022184B0A4016D0012215400FD186
:103410001A4918480A780078904205D9501C08705B
:1034200015498A5C1A7100E01D71D023A37017E062
:10343000C0229A701B7913E014490A709A792021EE
:103440000A439A710E4A19791378C9B21F2B07D80B
:1034500006480078002803D0581C10700C4AD1543C
:103460000223E37038BDC046006006404C090020CE
:1034700098090020B309002054090020B409002055
:10348000B109002050090020B00900209C0900204B
:1034900076090020044B054A490019700123137076
:1034A000034A13707047C04654090020B209002037
:1034B000B3090020F7B52A4C1223E370A3780E1C41
:1034C0009A0601D5B42317E0264F3B680093009D70
:1034D000FFF750FE202318400BD03B680193019B5F
:1034E0005B1B0F2BF4D90023A3708023A37004204F
:1034F00034E01D4B1870B023A370FFF73BFE83062A
:10350000FBD50025194B1B78AB421FD9184B5B5DCF
:103510002371FFF72FFE820701D48306F9D402231B
:10352000E3700F4FFFF726FEC20601D4830603D4D3
:103530008023BB7004200AE0C20704D56B426B41B4
:103540000320C01A05E00135EDB2DBE70020002EB4
:1035500001D08023A370074B00221A70FEBDC04625
:1035600000600640BC09002075090020B309002056
:1035700054090020B2090020F8B51F1C314B161C5D
:1035800000221A70304B314D1A701222EA70AA785C
:103590000C1C930601D5B42307E0FFF7EBFD2023B5
:1035A0001840FAD12A4B1870B023AB706400012385
:1035B0002343DBB22B71FFF7EBFDFFF7DBFD11239C
:1035C000224C184003D08023A370002038E0002E46
:1035D00005D1A023002F00D08023AB7030E0A823BA
:1035E000012E00D0A023A3702B790024012E11D02E
:1035F000013EF6B2FFF7CCFD012E01D1A823AB703E
:103600001F2C05D82979134A631C1155DCB2EDE74C
:103610002B79EBE7FFF7BCFDB022261C0B4BAA7001
:103620001F2C05D81A790B4B0134E4B29A5500E0EF
:103630001B79002F01D08023AB70034B201C1C7022
:10364000F8BDC046B0090020B10900200060064066
:10365000750900207609002008B5C9B2D2B201234D
:10366000FFF78AFF08BD08B5C9B2FFF713FF08BD11
:1036700008B50121FFF71EFF08BDFFFF08B502488E
:10368000FFF70CFE08BDC046A0090020F0B51E4B98
:103690001A6880231A40FAD172B61C4B1978002997
:1036A00030D01B490C681B490F681B493C190E6838
:1036B0001A49A4190D681A49641908681949241887
:1036C000096819486418A4B2184964080C43A4B2E4
:1036D0000460174C174800682568174CAC462768EB
:1036E000164C60442668164CC0192568154C801984
:1036F00024684019001980B240080143124889B279
:1037000001601A7062B6F0BD24B00340B609002013
:1037100038B003403CB0034040B0034044B00340E5
:1037200048B003404CB003402CB003400080FFFF82
:103730005CB0034058B0034060B0034064B0034045
:1037400068B003406CB0034030B003401B4B1C4AD0
:1037500019781C4B082901D1002102E00A2903D164
:1037600038211160132206E00C2901D1342100E038
:103770003C21116012221A60134B1A78134B002A55
:1037800001D0002200E001221A60114B1A78114B7F
:10379000012A01D880220CE0042A01D8842208E002
:1037A000082A01D8852204E0102A01D8862200E0E8
:1037B00087221A60084B01221A70704785FDFF1F8F
:1037C00008B003400CB00340B809002020B003400B
:1037D00086FDFF1F24B00340B609002070B5031E0C
:1037E0000C2B0DD9021C0E3AD2B20C2A07D91A1C86
:1037F000263A193B0020DBB2012A32D800E0131C24
:10380000184AD45C184B1B78002B01D0FFF73EFF01
:1038100072B6164B1022610605D5196891431960DE
:103820003F231C4002E019680A431A60104B114DF7
:1038300001221C602A7062B61E1C72B633681A061A
:1038400008D50D4B186800232B7062B60B4B1B7804
:10385000184106E02B78002BDBD062B601F0DCFFCC
:10386000EBE770BDB8B80000B60900200CB003400B
:1038700000B00340B709002010B00340B509002094
:103880000C4B8022196812060A431A600A4B1A78F8
:103890000A4B002A01D1D02200E090221A70084B76
:1038A000984200DD181CC343DB171840054B1880F5
:1038B0007047C0463C800440B809002021F0034016
:1038C000FF0F000000F00340024B1A6801321A603B
:1038D0007047C046BC09002010B50B4C23685A0342
:1038E00001D501F03FF823685A0501D500F0D2FC5C
:1038F00023681A0501D500F013FF2368DA04ECD51C
:1039000002F0DAFAE9E7C0463480044008B5FFF770
:10391000E3FFFFFF014B00221A6070470081044063
:103920007047FFFF024A136818181060181C704790
:1039300088FDFF1FEFF31380002821D1EFF31082E1
:10394000002A1FD1EFF30583002B0FD0101C0F2B83
:103950000ED91A1C103A92080B490320920003401A
:10396000521883401068D840C0B201E08020400067
:10397000EFF31182002A05D0824203D2101C01E02D
:10398000012040427047C04600E400E010B51A280C
:1039900018D80C2358430C4A835810181C7D027AFF
:1039A000224205D0002901D01A710BE01A7209E0F9
:1039B00043681A68002902D003210A4301E002216A
:1039C0008A431A6010BDC046C8B8000000231A28F8
:1039D0000AD80C235843054A81581018027A0B7CE8
:1039E00013405A1E9341DBB2181C7047C8B8000040
:1039F000F0B51A283DD80C273D1C45431D4A5419E3
:103A00006368161C012901D0042912D17843325869
:103A10003018147D007A20431075A22252001A60DB
:103A20002022042901D1196814E0196891430A1C65
:103A30001EE0AA58247A107DA0431075002902D0F8
:103A40008A1E012A12D8802252001A60022903D14C
:103A50001A6803210A430BE003290AD11A680221DC
:103A60000A431A601A6801218A4301E00422FF32E6
:103A70001A60F0BDC8B8000038B50A1C041C434BDE
:103A80001A280ED11B780B2B03D80C21CB1A9A4085
:103A900003E00C2B01D00C3B1A41101CFFF7F0FE89
:103AA00072E0197801252B1C8B40002A01DC0021D3
:103AB00002E09A4205D3291CFFF768FF201C291C4D
:103AC00060E0231C103B0338012B01D8304B05E08C
:103AD000C3B2012B01D82F4B00E02F4B1B680133E1
:103AE0005343CB40142843D803F0B6FD353B421F67
:103AF0004242151A4242424242292F424224420B7C
:103B00001000264A1360264A264B2FE0264A1360EF
:103B1000234A264B2AE0264A1360214A254B25E0FA
:103B2000254A13601E4A254B20E0254A13601C4A93
:103B3000244B1BE0244A1360194A244B16E0244A04
:103B40001360D1229200234B10E0234A1360D1224C
:103B50009200224B0AE0224A1360D1229200214BAC
:103B600004E0214A1360D122204B92001A600BE03E
:103B700001217F2A00DC0021C9B2201CFFF706FFCB
:103B8000201C0121FFF734FF38BDC0468CFDFF1F0C
:103B90000890034008A003400880034010800340C1
:103BA0004404000004B004401880034008B00440FE
:103BB000208003400CB004402880034010B0044033
:103BC0003080034010C004403880034014C00440DB
:103BD0001090034000A004401890034004A004404B
:103BE00010A003400490044018A003400890044033
:103BF00072B60C4B0C491A680C4B1B68096862B60C
:103C0000480104D532219142894149425B18FA208A
:103C1000800043430648821A06484243920D981892
:103C20007047C04618E000E004ED00E0BC09002049
:103C30007FBB00005555010038B5041CFFF7D8FFC5
:103C4000051C002C0FD0FFF7D3FF074B401B9842F9
:103C500006D9013C002C06D0FA239B00ED18F2E7B0
:103C600001F0DAFDEFE738BDE70300001D4B8022CD
:103C7000D20510B51A60802212061A601A4B002075
:103C800018601A491A4B1B4A1960282313601A4AF4
:103C90001A4C13601A4A13601A4A13601A4A1360C6
:103CA0001A4A136009222260194C2060194C2160C5
:103CB000194C2360194C2360194C2260194C206068
:103CC0001948016019490B6019490B60194B1A60BA
:103CD000FFF73CFDC8204000FFF7AEFF01F02AF9D6
:103CE00010BDC04600E100E004800340FFBF0000BB
:103CF000088003400C800340148003400080034090
:103D00001C800340248003402C8003403480034007
:103D100004900340089003400C900340149003402B
:103D20000090034004A0034008A003400CA00340FF
:103D300014A0034000A00340264B80221968D20043
:103D40000A431A60244A00231370244A1370244A39
:103D50001370244A1370244A1370244B1B78032BCE
:103D600009D0152B04D0002B08D1214A214B04E0A7
:103D70001F4A214B01E0214A214B1A60214B1B783D
:103D8000042B0BD0052B05D0012B0BD1D122920097
:103D90001D4B06E0D12292001C4B02E091221C4BED
:103DA00092001A601B4BC204D20E1A70C0B20022DD
:103DB00058709A702C22DA70174BFF2219689143C1
:103DC0000A1C40210A431A60144B802252011A60D7
:103DD0007047C04634800440490A0020C5090020CD
:103DE000500A00204A0A0020C4090020060A0020C8
:103DF0001303000040A0044018C004401302000058
:103E0000049004408DFDFF1F44A004401CC00440EA
:103E10000890044000A006400CE400E000E100E04F
:103E200010B5124B132299789143032202400A43A2
:103E3000410701D510210A439A700F220B49024015
:103E4000042A03D18A79402422438A715A791021A5
:103E50008A43084200D00A435A719A7910218A4352
:103E6000840600D50A439A7110BDC04600A00640E2
:103E700008B5124B1B685A051ED5114B1B78DBB2D7
:103E8000002B02D001F0C8FCF7E70E4A802149015F
:103E900011600D4A0D49D3700422FF320A600C49AB
:103EA0000A600C4A13700C4A13700C4B1B68002BF1
:103EB00002D00B4A12781A7108BDC0463480044003
:103EC000C409002080E100E000A0064040A00440BA
:103ED00044A00440490A0020C5090020C009002070
:103EE000070A002038B5041C0B4B1D78EDB2002DDD
:103EF000FAD1201C0121FFF77BFD291C201CFFF7B4
:103F000045FD0C225443054B054AE1581C1911602C
:103F1000044B227A1A7038BDC4090020C8B80000CA
:103F20004C0A0020480A002030B5002901D0802327
:103F30001843224A1378141C98423ED0204A126833
:103F4000550539D57F221340042B0FD004D8012BFF
:103F50000FD100221B4B0BE0052B04D0182B08D1EE
:103F60000022194B04E00022184B01E0184B0022FC
:103F70001A604423002900D060237F220240042AD3
:103F800015D006D8012A17D1C022920013430D4A3A
:103F900011E0052A06D0182A0ED18022D200134340
:103FA000094A08E0C02292001343084A03E0802235
:103FB00092001343064A1360207030BD8DFDFF1F31
:103FC0003480044044A0044050D004401CC004404D
:103FD0000890044010B51A4A137898422ED0194917
:103FE00009684C0529D5032B0FD004D8002B0FD11D
:103FF00015490B600CE0152B04D0192B08D10021BA
:10400000124B04E00021124B01E0124B0021196019
:1040100003280FD004D800280FD10F490A4B0BE01A
:10402000152804D0192808D10C49084B04E00A4986
:10403000074B01E00A49074B1960107010BDC046DC
:10404000060A00203480044040A0044054D00440BC
:1040500018C004400490044013030000130400003F
:104060001302000038B50E4B1A680023510514D511
:104070000C4C1A2810D80C2343430B4A0B4D99586B
:10408000D3181B7A216001212B70FFF7B1FC236844
:104090002A781A72012300E02360181C38BDC0463C
:1040A00034800440C0090020C8B80000070A00207E
:1040B00000207047F8B5214B071C1B685A053BD5FB
:1040C0001F4B1B68002B02D01E4A12781A711E4E1D
:1040D000002334783F220134A2425B415B421C4002
:1040E0001A4D2B78A3421CD1FFF724FC402813DC87
:1040F000174A13795BB2002BF2DA2B7800210133D7
:104100003F209842494149420B401249C95CDBB209
:10411000C9B2D1712B70E3E7FF28E1DD01F07CFB30
:10412000DEE70C4BFFB21F550B4B01221A70084BF8
:10413000E4B2AC223470DA70F8BDC046348004407A
:104140004C0A0020480A0020500A00204A0A002099
:1041500000A00640C6090020C409002038B5041C90
:104160004518AC4204D02078FFF7A4FF0134F8E7EB
:1041700038BDFFFF08B5044B1B78002B02D001F0BF
:104180004BFBF8E708BDC046C4090020064B074AB0
:104190001B781078DBB2C0B2834201D33F3000E01D
:1041A0000138C01A7047C046500A00204A0A002051
:1041B000054B1878054BC0B21B78DBB2984200D291
:1041C0004030C01A7047C046490A0020C509002087
:1041D00010B5124B12491A780B78D2B2DBB29A4260
:1041E00019D001333F2400209C424041404203400B
:1041F0000C48DCB2C05C0C700B49C0B209680029E5
:104200000BD09A4200D24032D31A1A2B05DC074B4E
:104210001B780B7201E00120404210BD490A0020CA
:10422000C5090020080A0020C0090020070A002054
:104230000A4B1A780A4B1B78DBB29A420AD0013338
:1042400000223F219942524152421340054AD05C1C
:10425000C0B201E0012040427047C046490A002038
:10426000C5090020080A0020064B1A78064BD2B276
:104270001A70064B1B68002B02D0054A12781A727E
:104280007047C046C5090020490A0020C009002027
:10429000070A002030B5254A1379990612D524491A
:1042A000D4790B78002001333F259D4240414042A4
:1042B00003402048E4B20078834203D01E48C4542F
:1042C000DBB20B70D178194CC9B24BB2002B1ADAA1
:1042D00023795BB2002B16DA184B19481D78037846
:1042E000DBB29D4202D16C23E3700CE00133002469
:1042F0003F259D42644164422340124CE45CDBB2A2
:10430000E4B2D4710370402319420ED011791942DE
:104310000BD00D4B002119700C4B1B688B4202D047
:104320000B49097819722C23D37030BD00A00640C8
:10433000490A0020C5090020080A0020500A002070
:104340004A0A0020C6090020C40900204C0A0020A7
:10435000480A0020164B8022196812010A431A608D
:10436000144A00231370144A14491370144A13702A
:10437000144A1370144A1370144A1160144AD1215C
:1043800089001160134AC104C90EC0B21170507087
:1043900093702C23D370104B104A19680A40802167
:1043A000C9010A431A600E4B802292011A607047BD
:1043B00034800440C40A0020590A0020130300007E
:1043C000CC0A0020C50A0020580A00200CB0044086
:1043D00010B0044000B006400CE400E0FF00FFFF16
:1043E00000E100E010B5124B1322997891430322AB
:1043F00002400A43410701D510210A439A700F2257
:104400000B490240042A03D18A79402422438A714D
:104410005A7910218A43084200D00A435A719A7986
:1044200010218A43840600D50A439A7110BDC04604
:1044300000B0064008B5124B1B681A051ED5114B7B
:104440001B78DBB2002B02D001F0E6F9F7E70E4A49
:104450008021890111600D4A0D49D3700422FF3279
:104460000A600C490A600C4A13700C4A13700C4B1A
:104470001B68002B02D00B4A12781A7108BDC04687
:1044800034800440580A002080E100E000B006407B
:104490000CB0044010B00440C40A0020590A0020A7
:1044A000540A0020820A002038B5041C0B4B1D78EA
:1044B000EDB2002DFAD1201C0121FFF799FA291C39
:1044C000201CFFF763FA0C225443054B054AE158C0
:1044D0001C191160044B227A1A7038BD580A00204A
:1044E000C8B80000C80A0020C30A002070477047FF
:1044F00038B50E4B1A680023110514D50C4C1A2838
:1045000010D80C2343430B4A0B4D9958D3181B7AF0
:10451000216001212B70FFF76BFA23682A781A7249
:10452000012300E02360181C38BDC04634800440DD
:10453000540A0020C8B80000820A002000207047FA
:10454000F8B5214B071C1B681A053BD51F4B1B6890
:10455000002B02D01E4A12781A711E4E00233478A6
:1045600027220134A2425B415B421C401A4D2B784A
:10457000A3421CD1FFF7DEF9402813DC174A137958
:104580005BB2002BF2DA2B7800210133272098420E
:10459000494149420B401249C95CDBB2C9B2D171F1
:1045A0002B70E3E7FF28E1DD01F036F9DEE70C4B85
:1045B000FFB21F550B4B01221A70084BE4B2AC221C
:1045C0003470DA70F8BDC04634800440C80A002058
:1045D000C30A0020CC0A0020C50A002000B0064013
:1045E0005A0A0020580A002038B5041C4518AC426D
:1045F00004D02078FFF7A4FF0134F8E738BDFFFFAF
:1046000008B5044B1B78002B02D001F005F9F8E740
:1046100008BDC046580A0020064B074A1B78107890
:10462000DBB2C0B2834201D3273000E00138C01AA8
:104630007047C046CC0A0020C50A0020054B1878F8
:10464000054BC0B21B78DBB2984200D24030C01A92
:104650007047C046C40A0020590A002010B5124B0A
:1046600012491A780B78D2B2DBB29A4219D00133D0
:104670003F2400209C424041404203400C48DCB2B1
:10468000C05C0C700B49C0B2096800290BD09A427B
:1046900000D24032D31A1A2B05DC074B1B780B7261
:1046A00001E00120404210BDC40A0020590A002048
:1046B000830A0020540A0020820A00200A4B1A783C
:1046C0000A4B1B78DBB29A420AD0013300223F2109
:1046D0009942524152421340054AD05CC0B201E0B7
:1046E000012040427047C046C40A0020590A0020F9
:1046F000830A0020064B1A78064BD2B21A70064B7A
:104700001B68002B02D0054A12781A727047C04607
:10471000590A0020C40A0020540A0020820A0020FE
:1047200030B5254A1379990612D52449D4790B78E6
:10473000002001333F259D42404140420340204834
:10474000E4B20078834203D01E48C454DBB20B703D
:10475000D178194CC9B24BB2002B1ADA23795BB26B
:10476000002B16DA184B19481D780378DBB29D42EE
:1047700002D16C23E3700CE00133002427259D4215
:10478000644164422340124CE45CDBB2E4B2D47175
:104790000370402319420ED0117919420BD00D4BF2
:1047A000002119700C4B1B688B4202D00B49097811
:1047B00019722C23D37030BD00B00640C40A00200B
:1047C000590A0020830A0020CC0A0020C50A0020D4
:1047D0005A0A0020580A0020C80A0020C30A0020F4
:1047E000F0B50B4F02223B780A4E1A43D2000A4D15
:1047F000B418606028788824002800D0C8240904F0
:104800000C43B45001225040534028703B70F0BD1F
:10481000380B002000F8FF1FB00B0020431E10B51E
:10482000032B0FD872B6084A99008858002807D081
:1048300044685B008C50054A01889C5A611A995261
:1048400062B600E0002010BD280B00208C0C002078
:10485000431E0020032B09D872B6054A9B009B58C3
:10486000002B02D001305B68FAE762B67047C046A1
:104870007C0B002038B572B60123164A9A18013A0B
:10488000127811071CD5144A5C01A5589900002D17
:1048900005D1131908305860104BA3500AE00124C9
:1048A0002143C9008C58002C0AD153180830586095
:1048B0000B4B8B500B4B1A78013A1A7062B608E01A
:1048C0000133052BD9D162B6064B00221A7000F0D5
:1048D000A5FB38BD76BA000000F8FF1F8800400035
:1048E000C8004000A60B0020421E10B5032A30D895
:1048F000022380001843174BC0001B1872B6164CD9
:10490000A05C032809D802F0A7FE1402160508339C
:10491000022011E0083304200EE0104892001458E1
:104920000F4B002C01D1115001E098584160995073
:104930000EE0032000E00520A0540A1C08325A6053
:104940008822180700D5C822098809040A431A607A
:1049500062B610BD00F8FF1FE40A00207C0B0020A7
:104960008C0B0020F7B5B5490C780E1CE4B2620739
:104970001DD5B34B1B78002B16D0B24A1378DBB28F
:10498000002B05D0013BDBB21370002B00D100BE21
:10499000AD4A1378DBB2002B06D0013BDBB21370BB
:1049A000002B01D100F07AFCA44D04232B700825C4
:1049B000221C2A4000D154E2A44BA54C1B78DBB248
:1049C0001E099A08002E00D0DDE1D50065192F6878
:1049D0006A68B806000F01380C2800D9D0E102F04F
:1049E00045FE93019301CF01CF01CF01CF01CF014C
:1049F000CF01AC01CF01CF01CF010D009549136864
:104A0000954F526895482960954D964900263B6020
:104A10007A609BB201222E602661A66102708B42F1
:104A200018D8D021C9008B4200D3E5E08121914004
:104A30008B4200D1C2E006D8802B00D1A9E0822BA6
:104A400000D1ABE0F5E0884A934200D1C5E0A02256
:104A5000D20017E085498B4200D152E10DD8882160
:104A600009018B4200D18EE090221201934200D0C6
:104A7000DFE0BA78724B1A7009E07D4A934200D1A8
:104A8000CFE07C4A0026934200D115E1D1E0A31982
:104A9000196A090603D5586A083800F0BFFA0836C3
:104AA000802EF4D100252E1C734AA858002805D06A
:104AB0004368019300F0B2FA0198F7E76E496F4B33
:104AC0006F4A4851E850A858002805D04368019320
:104AD00000F0A4FA0198F7E76A4B6B4AE8507300BC
:104AE000D0526749694B4851F05C0238032807D817
:104AF00002F0B2FD02040204002200E001229A55F5
:104B000001360435042ECFD1614A002313700125EC
:104B1000161C604BEA18604B9200EB18013B1B78A7
:104B20001370190720D500F05BFA6B01002805D03F
:104B3000E21808305060594AE25003E0E050337800
:104B40000133337000F04CFA0122AB001343DB0059
:104B5000002805D0E218083050603E4AE25003E0D9
:104B6000E050337801333370AB0002221A43D20095
:104B70000021A1500322134393400135E150052D3C
:104B8000C7D10E1C98E02E4B454C1B78161C237089
:104B900093E0434C2670667002268EE0BB88042B9F
:104BA00047D83F4C3F4D9B00267066705B191B78C1
:104BB0000226334200D180E022707EE0BA887F2353
:104BC0001340042B35DC7E88002E32D135499B0002
:104BD0005B181A7802218A4329E0BA887F231340A0
:104BE000042B26DC7E88002E23D12E4A9B009B18A6
:104BF0001A7802210A431AE07A88B9882A4B5C683D
:104C0000002C16D01888904209D15888884206D1C5
:104C1000120A032A01D126784FE01E894DE00C3399
:104C2000EDE7224B1A68224B1A60BA78214B1A70B2
:104C300042E01C4B0F221A7063E0C0468020074000
:104C4000AF0B0020390B0020B10B00209020074053
:104C500000F8FF1FC80040009C0B0020B00B002094
:104C6000D00A00208106000002030000212000007D
:104C70002122000021230000280B0020D40A00205C
:104C80007C0B00208C0B00208C0C0020E40A002000
:104C9000A60B002030C8011076BA00008800400042
:104CA000A70B0020C02007407CBA0000BC090020F0
:104CB0009C0C0020C00B0020341CFB889E4200D9B5
:104CC0001E1C371E402F00D94027201C391CFFF71F
:104CD00087FDE419F61B03D1351C402F04D010E0EA
:104CE0004025B54200D9351C201C291CFFF778FD52
:104CF0006419761B01D1402D03D1754D754B2C6085
:104D00001E800122744B3AE0744B1988744B99420F
:104D100010D10023D05C7349C8540133072BF9D15B
:104D20000B68862B02D1704B0F221A700020011CD9
:104D3000FFF756FD6D4B2B6022E0654F3D68002D5F
:104D400013D064490E88341E402C00D94024281CFE
:104D5000211CFFF745FD361B5E4AB6B21680002EB9
:104D600001D1402C00D12E193E605C4BA022198845
:104D7000D200914204D100225A709A785C4B1A708A
:104D80000122554B61E0D200A4186068013E08384A
:104D9000F6B22B4036D000F041F95649B0004258E7
:104DA000554B002A1BD055684550111C985D0831A1
:104DB000616003280BD802F04FFC020406080321AF
:104DC00004E0022102E0052100E004219955882336
:104DD000270700D5C8231288120413433CE0985DCE
:104DE000032808D802F038FC39390204002200E018
:104DF00001229A5531E02C40624262410324A41AF8
:104E00009C552AE062880280002A20D03B4D4380D6
:104E10004360B3005F593A49002F01D1585101E076
:104E2000CD586860C850374B7600F15A5218F2528C
:104E300000F0D6F8002804D00830606021070AD5B9
:104E400007E0314B20601A7801321A7005E02C42DD
:104E500001D0264B00E02D4B23602D4A0823137010
:104E600081E5012004421ED01B4902230B70294B0F
:104E7000264C1A70284B294D1C609C60284C1A61E6
:104E8000DC609A615D60274B0D241C70264CFF236B
:104E90002370174C33702270244A1370244B9F22C6
:104EA0001A70087013E063B2002B04DA1D4B0D2258
:104EB0001A708023337002231C4204D01A4A1178DE
:104EC000C9B21170337010231C4200D03370F7BD8B
:104ED000D00A0020A40B0020942007409C0B002047
:104EE00021200000940C0020390B0020C800400055
:104EF000982007407C0B0020E40A0020280B0020AB
:104F0000D40A00208C0C0020A60B00208800400052
:104F100080200740380B002000F8FF1FE80A00201F
:104F20003C0B0020C0200740882007408C20074011
:104F30008420074010B501F035F800221A4B0021FB
:104F4000D150981808324160882AF7D1174A80203A
:104F50001468C00220431060180A154AC0B21070CD
:104F6000180C144AC0B21070134A1B0E1370134A67
:104F7000FF231370124A13481370134A137001224F
:104F800002701248017012490A70124A116899435E
:104F90000B1C70210B4313600F4B802252041A60CC
:104FA0000E4B10221A7010BD00F8FF1F3480044011
:104FB0009C200740B0200740B420074080200740D5
:104FC0008820074094200740102007400021074018
:104FD0008420074018E400E000E100E008210740D9
:104FE00038B572B60B4C2568281C02F071FC0B28F2
:104FF00002D962B600200CE080231B06C3409D430B
:10500000256062B648235843034B181800230360F9
:10501000436038BD90FDFF1F00FAFF1F10B5041C50
:105020000E484821201A02F02BFB0B2815D80C4BF8
:105030001B78002B07D00B4B1B78002B03D0201CB8
:10504000FFF718FC09E072B68022074B1206C24037
:10505000101C1A681043186062B610BD00FAFF1FDA
:10506000A60B0020AF0B002090FDFF1F38B5114CA0
:105070002368002B0CD020684288531C8218157AB4
:105080000288934212D3FFF7C9FF002323600EE08A
:10509000094B1B78002B02D10120404208E003207D
:1050A000FFF7BCFB20600028E5D1F5E74380281C12
:1050B00038BDC046BC0B0020AF0B002010B50D4C16
:1050C0002368002B03D02368002B0ED103E00A4B8A
:1050D0001B78002B02D10120404209E00320FFF79A
:1050E0009DFB20600028EED1F5E75A889B18187ABE
:1050F00010BDC046BC0B0020AF0B0020054B9888AC
:10510000054B1B68002B03D01A885B88D31AC01884
:105110007047C0468C0C0020BC0B002010B50A4B19
:105120001B78002B0FD0094C2068002803D0FFF714
:1051300075FF002323600320FFF770FB002802D0D7
:10514000FFF76CFFF7E710BDAF0B0020BC0B002092
:10515000F7B5304D0123071C0C1C2B70002C56D0CA
:105160002D4E3068002827D12C4A01922C4B1B78F9
:10517000DBB2002B03D12B700120404249E0042018
:10518000FFF766FB072808D801232B70FFF728FFDD
:10519000214B186000280FD128700198214B01384D
:1051A0000190002802D01A78002A02D001221A7039
:1051B000E2E700F031FBD9E71A4B002231681A70A0
:1051C0004B884020C01A0094844200D90090181CDB
:1051D000009A08309B1808184B800190A41A0023ED
:1051E0000098834204D0F85C019AD0540133F7E769
:1051F000FF184B883F2B06D940230B800420FFF774
:1052000073FB00233360084B05221A70A6E72C704D
:10521000201CFEBDB20B0020B40B0020097500005D
:10522000AF0B0020B80B0020B10B002007B56B4678
:10523000D8710733181C0121FFF78AFF0EBDFFFF4D
:10524000F8B5124B1B78002B1ED0114F114B3C6848
:1052500001261E70104D002C09D000262E70638888
:1052600004202380211CFFF73FFB3E6009E0FFF78D
:10527000B7FE011E04D004202C70FFF735FB00E0C0
:105280002E70044A00231370F8BDC046AF0B0020F7
:10529000B40B0020B20B0020B10B002038B50E4B30
:1052A0001D78EDB2002D15D10C4C2168002906D0D7
:1052B0004B8804200B80FFF717FB25600AE0FFF7FF
:1052C0008FFE011E03D00420FFF70EFB02E0044B0B
:1052D00001221A7038BDC046B20B0020B40B00206A
:1052E000B10B002008B50368C9B21B68984708BD18
:1052F00008B50368C9B21B68984708BD08B50368BC
:10530000C9B21B68984708BD08B50368C9B21B68D5
:10531000984708BD08B5044B4808C01802F0B0F91A
:10532000FEF70AFD08BDC046C0C62D0010B5064BED
:105330004808C018141C02F0A3F9FEF7FDFC201C5D
:10534000FEF76EFD10BDC046C0C62D0008B5FEF7C5
:105350008FFD08BD08B5081CFEF7C4FD08BD08B5E3
:10536000081CFEF737FE08BD08B5081C111CFEF727
:10537000DBFD08BD08B5081CFEF774FE431E98410E
:10538000C0B208BD08B5081CFEF792FE431E984146
:10539000C0B208BD08B5FEF70BFF08BD08B5FEF7A3
:1053A00047FF08BD08B5FEF713FF08BD08B5FEF7B7
:1053B000E1FE08BD08B5FEF757FF08BD08B5FEF7CA
:1053C000E5FE08BD08B5081CFEF774FE012008BD07
:1053D00008B5081CFEF76EFE012008BD10B5081CBC
:1053E000141C111CFEF7BAFE201C10BD38B5081C99
:1053F0000D1C04F0CDFE041C211C281CFEF7AEFE83
:10540000201C38BD7047FFFF044B00221A711A732D
:10541000FA21034A890099601A607047C40B002082
:1054200018BA0000F0B500258DB08C68061C0F1C62
:105430000195002C14D02122381C03A92B1C00F04C
:1054400057F9221E202A00D920223368301C5B68BD
:1054500003A9AD18A41A9847019B1B180193E8E70C
:1054600001980DB0F0BDFFFF37B50224051C221CCA
:1054700001A8054904F0AEFD2B68281C5B6801A952
:10548000221C98473EBDC04670BA000010B5041CEF
:10549000006804F095FD201C10BD38B5041C0D1CDF
:1054A0000068013104F044FE002801D021C401202D
:1054B00038BD436810B5041C8B4208D2FFF7EDFFDE
:1054C000002805D0A368002B01D1226813700120A9
:1054D00010BDF8B5041C0F1C151E05D10368002B68
:1054E00000D01A7000230DE0111CFFF7E2FF061C2C
:1054F0002068002E08D1002802D004F061FD26604B
:1055000000236360A36003E0A560391C04F038FE4B
:10551000201CF8BD38B50023041C0D1C036043603B
:1055200083600373994207D0081C04F031FE291CE4
:10553000021C201CFFF7CDFF201C38BD38B5051C10
:1055400000680C1C00280CD06A688B689A4206D34D
:10555000096804F015FEA2680023AA600AE004F0BE
:105560002FFD236862682B60A3686A60AB6000232C
:1055700023606360A36038BD08B50B1C884203D06C
:1055800009689A68FFF7A5FF08BD10B50023041C41
:105590000360436083600373FFF7EEFF201C10BDC0
:1055A00010B5041E8C4201D0FFF7C8FF201C10BDAF
:1055B00038B5051C0C1E08D0081C04F0E9FD211CA0
:1055C000021C281CFFF785FF00E0A960281C38BDDD
:1055D00010B5002386B0041C03604360836003732E
:1055E000081C01A900F063F9201C01A9FFF7E0FFE6
:1055F000201C06B010BD10B500238AB003604360C4
:1056000083600373931C041C081C191C6B4600F078
:105610005DF9011C201CFFF7CBFF201C0AB010BD58
:1056200070B5041C0E1C8568002A0CD05519291C65
:10563000FFF73FFF002806D02268A368311CD0186E
:1056400004F09EFDA560201C70BD08B50B1C9A6877
:105650000968FFF7E5FF08BD38B5051C0C1E07D02B
:10566000081C04F095FD211C021C281CFFF7D8FF24
:10567000281C38BD13B5002201AB041C19705A70E8
:10568000191C0122FFF7CCFF201C16BD38B5051CE4
:105690000C1E07D0081C04F07BFD211C021C281CDA
:1056A000FFF7BEFF281C38BD08B58368002B05D165
:1056B000002901D0087808E0012009E000680029ED
:1056C00001D1007801E004F051FD43425841C0B2DD
:1056D00008BDFFFF8368994203D203685818002B66
:1056E00002D10248002303707047C046D40B00204B
:1056F00038B50D1C002A14D0002912D081688B42C5
:1057000002D300232B700CE0541EC91A8C4200D91E
:105710000C1C0168221CC918281C04F040FD002341
:105720002B5538BD836810B59A4208D204680968C1
:10573000A01804F048FD002801D0001B01E0012062
:10574000404210BD08B50022FFF7ECFF08BDF8B5D8
:10575000151C8A680E1C002A1AD08368002B17D0EB
:105760009A4215D89D4200D35D1E07680124381C5B
:1057700064427B1998420ED8316804F024FD002859
:1057800009D0C31BAB4200D9231C01301C1CF0E71D
:105790000120404200E0201CF8BD10B583688C68F1
:1057A0001A1BFFF7D4FF10BDF8B5041C0E1C9A425B
:1057B00002D9111C1A1C0B1C0021A1602160616020
:1057C0002173B1688A420FD81D1E8D4200D90D1C6D
:1057D0003168201C4B1900211F7819703368991803
:1057E000FFF7E6FE33685F55201CF8BD10B58B68E7
:1057F000041CFFF7D9FF201C10BD006808B5002865
:1058000001D004F07CFB08BD08B5FBF773FAFCF788
:105810005BFD00F001F8FAE710B5104C2378002B7F
:105820001BD101232370FFF769FC002801D000F091
:1058300052FDFEF7BDFC002801D0FFF7E3FDFEF7A7
:10584000FDFE002801D000F077FC00F0C3FA00282C
:1058500001D000F011FD0023237010BDD60B0020F5
:10586000F8B5061C0D1C171C0024301C391C01F057
:105870004BFF092901D8303100E03731C9B2295531
:10588000301C391C01F0FCFE061E01D00134ECE78F
:105890002B1958702B1C5A1BA24206DA1A78295D64
:1058A00019702A550133013CF5E7281CF8BD10B5E5
:1058B0000C1C002802DBFFF7D3FF06E02D230B7042
:1058C00040420131FFF7CCFF201C10BDF0B587B07E
:1058D0000391171C111C1D1C04AA05AB04F02EFB20
:1058E000049C061C002F06D1002C04D10378342B15
:1058F0000BD83E4E0AE0301C04F04AFCA04200DD0A
:10590000013063426341C01801E0394E012005991E
:105910000B1C5A1E9341C018039B8C462A18191A57
:1059200000290ADD521869182B1C029102998B423A
:1059300004D0202119700133F8E72B1C614600299F
:1059400002D02D2119700133002C07D1002F31D046
:10595000302119702E21597002332BE0002C29DAE6
:10596000002F27D0302119709F1C2E2159700197CC
:105970000132211C6742BC46019F3B1B5B1800297A
:1059800007DA019B1F1C674430237B5402970131C7
:10599000F0E704910EE03478591C1C7091420CD051
:1059A000049C013C0494002C02D12E24991C5C70B0
:1059B00001360B1C9342EED300E0131C039C002C19
:1059C0000EDA001940421A1C1918891A002903DD41
:1059D000202111700132F7E7C243D21710401B1883
:1059E0000022281C1A7007B0F0BDC04674BA00002F
:1059F00072BA0000204B8022196852010A431A60D3
:105A00001E4A002313701E4A13701E4A13701E4A4A
:105A100013701E4A13701E4B1B78062B04D0072BE5
:105A200005D11C4A1C4B01E01A4A1C4B1A601C4B46
:105A30001B78082B05D0142B07D1D1229200194BCB
:105A400002E0D122184B92001A60184BC204D20E09
:105A50001A70C0B2002258709A702C22DA70144B5F
:105A6000144A19680A408021C9030A431A60124B7C
:105A70008022D2011A60704734800440480C002014
:105A8000DD0B0020500C0020490C0020DC0B002016
:105A900094FDFF1F1303000008C0044010C0044021
:105AA00095FDFF1F14C004400CC0044000C0064018
:105AB0000CE400E0FFFF00FF00E100E010B5124B36
:105AC000132299789143032202400A43410701D5EA
:105AD00010210A439A700F220B490240042A03D175
